{"contracts/StakingTTT.sol":{"StakingTTT":{"abi":[{"inputs":[{"internalType":"address","name":"_tokenTTT","type":"address"}],"stateMutability":"nonpayable","type":"constructor"},{"anonymous":false,"inputs":[{"indexed":true,"internalType":"address","name":"previousOwner","type":"address"},{"indexed":true,"internalType":"address","name":"newOwner","type":"address"}],"name":"OwnershipTransferred","type":"event"},{"anonymous":false,"inputs":[{"indexed":true,"internalType":"address","name":"holderAddress","type":"address"},{"indexed":true,"internalType":"uint256","name":"amount","type":"uint256"}],"name":"PromoActivated","type":"event"},{"anonymous":false,"inputs":[{"indexed":true,"internalType":"address","name":"userAddress","type":"address"},{"indexed":true,"internalType":"uint256","name":"amount","type":"uint256"},{"indexed":true,"internalType":"uint256","name":"day","type":"uint256"},{"indexed":false,"internalType":"uint256","name":"time","type":"uint256"}],"name":"Staked","type":"event"},{"anonymous":false,"inputs":[{"indexed":true,"internalType":"address","name":"userAddress","type":"address"},{"indexed":true,"internalType":"uint256","name":"amount","type":"uint256"},{"indexed":true,"internalType":"uint256","name":"day","type":"uint256"},{"indexed":false,"internalType":"uint256","name":"rewardAmount","type":"uint256"},{"indexed":false,"internalType":"uint256","name":"time","type":"uint256"}],"name":"Unstaked","type":"event"},{"inputs":[{"internalType":"address","name":"userAddress","type":"address"}],"name":"availableReward","outputs":[{"internalType":"uint256","name":"amount","type":"uint256"}],"stateMutability":"view","type":"function"},{"inputs":[],"name":"finishStakeTime","outputs":[{"internalType":"uint256","name":"","type":"uint256"}],"stateMutability":"view","type":"function"},{"inputs":[],"name":"getDayNumber","outputs":[{"internalType":"uint256","name":"","type":"uint256"}],"stateMutability":"view","type":"function"},{"inputs":[],"name":"getReward","outputs":[],"stateMutability":"nonpayable","type":"function"},{"inputs":[],"name":"owner","outputs":[{"internalType":"address","name":"","type":"address"}],"stateMutability":"view","type":"function"},{"inputs":[],"name":"renounceOwnership","outputs":[],"stateMutability":"nonpayable","type":"function"},{"inputs":[{"internalType":"uint256","name":"_startStakeTime","type":"uint256"}],"name":"setStartStakeTime","outputs":[],"stateMutability":"nonpayable","type":"function"},{"inputs":[],"name":"stake","outputs":[],"stateMutability":"payable","type":"function"},{"inputs":[],"name":"startStakeTime","outputs":[{"internalType":"uint256","name":"","type":"uint256"}],"stateMutability":"view","type":"function"},{"inputs":[],"name":"totalStaked","outputs":[{"internalType":"uint256","name":"","type":"uint256"}],"stateMutability":"view","type":"function"},{"inputs":[{"internalType":"address","name":"newOwner","type":"address"}],"name":"transferOwnership","outputs":[],"stateMutability":"nonpayable","type":"function"},{"inputs":[],"name":"unstake","outputs":[],"stateMutability":"nonpayable","type":"function"},{"inputs":[{"internalType":"address","name":"","type":"address"}],"name":"users","outputs":[{"internalType":"uint256","name":"stakedAmount","type":"uint256"},{"internalType":"uint256","name":"firstStakeTime","type":"uint256"},{"internalType":"uint256","name":"firstStakeDay","type":"uint256"},{"internalType":"uint256","name":"lastStakeTime","type":"uint256"},{"internalType":"uint256","name":"receivedRewardAmount","type":"uint256"},{"internalType":"uint256","name":"numOfReceivedRewards","type":"uint256"},{"internalType":"uint256","name":"savedReward","type":"uint256"}],"stateMutability":"view","type":"function"}],"evm":{"bytecode":{"linkReferences":{},"object":"608060405260036005553480156200001657600080fd5b50604051620022163803806200221683398181016040528101906200003c91906200025c565b6200005c620000506200012660201b60201c565b6200012e60201b60201c565b42600381905550601e600554620000749190620002c7565b60035462000083919062000312565b60048190555080600160006101000a81548173ffffffffffffffffffffffffffffffffffffffff021916908373ffffffffffffffffffffffffffffffffffffffff16021790555073337610d27c682e347c9cd60bd4b3b107c9d34ddd600260006101000a81548173ffffffffffffffffffffffffffffffffffffffff021916908373ffffffffffffffffffffffffffffffffffffffff160217905550506200034d565b600033905090565b60008060009054906101000a900473ffffffffffffffffffffffffffffffffffffffff169050816000806101000a81548173ffffffffffffffffffffffffffffffffffffffff021916908373ffffffffffffffffffffffffffffffffffffffff1602179055508173ffffffffffffffffffffffffffffffffffffffff168173ffffffffffffffffffffffffffffffffffffffff167f8be0079c531659141344cd1fd0a4f28419497f9722a3daafe3b4186f6b6457e060405160405180910390a35050565b600080fd5b600073ffffffffffffffffffffffffffffffffffffffff82169050919050565b60006200022482620001f7565b9050919050565b620002368162000217565b81146200024257600080fd5b50565b60008151905062000256816200022b565b92915050565b600060208284031215620002755762000274620001f2565b5b6000620002858482850162000245565b91505092915050565b6000819050919050565b7f4e487b7100000000000000000000000000000000000000000000000000000000600052601160045260246000fd5b6000620002d4826200028e565b9150620002e1836200028e565b9250828202620002f1816200028e565b915082820484148315176200030b576200030a62000298565b5b5092915050565b60006200031f826200028e565b91506200032c836200028e565b925082820190508082111562000347576200034662000298565b5b92915050565b611eb9806200035d6000396000f3fe6080604052600436106100c25760003560e01c806371aec5151161007f5780638da5cb5b116100595780638da5cb5b146101fd578063a87430ba14610228578063d72605f51461026b578063f2fde38b14610296576100c2565b806371aec5151461017e57806377999ffb146101a9578063817b1cd2146101d2576100c2565b8063066fd899146100c75780632def6620146101045780633a4b66f11461011b5780633d18b912146101255780635610e5421461013c578063715018a614610167575b600080fd5b3480156100d357600080fd5b506100ee60048036038101906100e991906116e3565b6102bf565b6040516100fb9190611729565b60405180910390f35b34801561011057600080fd5b506101196105a1565b005b610123610a2d565b005b34801561013157600080fd5b5061013a610fb0565b005b34801561014857600080fd5b50610151611289565b60405161015e9190611729565b60405180910390f35b34801561017357600080fd5b5061017c61128f565b005b34801561018a57600080fd5b506101936112a3565b6040516101a09190611729565b60405180910390f35b3480156101b557600080fd5b506101d060048036038101906101cb9190611770565b6112a9565b005b3480156101de57600080fd5b506101e76112dd565b6040516101f49190611729565b60405180910390f35b34801561020957600080fd5b506102126112e3565b60405161021f91906117ac565b60405180910390f35b34801561023457600080fd5b5061024f600480360381019061024a91906116e3565b61130c565b60405161026297969594939291906117c7565b60405180910390f35b34801561027757600080fd5b5061028061134e565b60405161028d9190611729565b60405180910390f35b3480156102a257600080fd5b506102bd60048036038101906102b891906116e3565b611381565b005b600080600080600860008673ffffffffffffffffffffffffffffffffffffffff1673ffffffffffffffffffffffffffffffffffffffff168152602001908152602001600020600201549050600061031586611404565b90506000600860008873ffffffffffffffffffffffffffffffffffffffff1673ffffffffffffffffffffffffffffffffffffffff16815260200190815260200160002060050154836103679190611865565b90505b81836103769190611865565b811015610544575b80600860008973ffffffffffffffffffffffffffffffffffffffff1673ffffffffffffffffffffffffffffffffffffffff16815260200190815260200160002060070186815481106103d3576103d2611899565b5b90600052602060002001541180610447575082600860008973ffffffffffffffffffffffffffffffffffffffff1673ffffffffffffffffffffffffffffffffffffffff168152602001908152602001600020600701868154811061043a57610439611899565b5b9060005260206000200154105b1561045f578480610457906118c8565b95505061037e565b60008190505b600060076000838152602001908152602001600020540361049357808061048b90611910565b915050610465565b600060076000838152602001908152602001600020549050806103e8600860008c73ffffffffffffffffffffffffffffffffffffffff1673ffffffffffffffffffffffffffffffffffffffff168152602001908152602001600020600801898154811061050357610502611899565b5b90600052602060002001546105189190611939565b61052291906119aa565b8661052d9190611865565b95505050808061053c906118c8565b91505061036a565b50600860008773ffffffffffffffffffffffffffffffffffffffff1673ffffffffffffffffffffffffffffffffffffffff16815260200190815260200160002060060154836105939190611865565b925082945050505050919050565b60006105ab611536565b90506000600860008373ffffffffffffffffffffffffffffffffffffffff1673ffffffffffffffffffffffffffffffffffffffff16815260200190815260200160002060000154905060008103610637576040517f08c379a000000000000000000000000000000000000000000000000000000000815260040161062e90611a38565b60405180910390fd5b6000600860008473ffffffffffffffffffffffffffffffffffffffff1673ffffffffffffffffffffffffffffffffffffffff16815260200190815260200160002060060154610685846102bf565b61068f9190611865565b9050600061069b61134e565b9050601f811115801561071357506005546001826106b99190611a58565b6106c39190611939565b600860008673ffffffffffffffffffffffffffffffffffffffff1673ffffffffffffffffffffffffffffffffffffffff168152602001908152602001600020600101546107109190611865565b42105b15610829576006546103e8600860008773ffffffffffffffffffffffffffffffffffffffff1673ffffffffffffffffffffffffffffffffffffffff1681526020019081526020016000206008016001600860008973ffffffffffffffffffffffffffffffffffffffff1673ffffffffffffffffffffffffffffffffffffffff168152602001908152602001600020600801805490506107b29190611a58565b815481106107c3576107c2611899565b5b90600052602060002001546107d89190611939565b6107e291906119aa565b600860008673ffffffffffffffffffffffffffffffffffffffff1673ffffffffffffffffffffffffffffffffffffffff168152602001908152602001600020600601819055505b6000600860008673ffffffffffffffffffffffffffffffffffffffff1673ffffffffffffffffffffffffffffffffffffffff168152602001908152602001600020600401819055506000600860008673ffffffffffffffffffffffffffffffffffffffff1673ffffffffffffffffffffffffffffffffffffffff168152602001908152602001600020600001819055506000600860008673ffffffffffffffffffffffffffffffffffffffff1673ffffffffffffffffffffffffffffffffffffffff1681526020019081526020016000206001018190555082600660008282546109139190611a58565b925050819055506006546007600083815260200190815260200160002081905550600160009054906101000a900473ffffffffffffffffffffffffffffffffffffffff1673ffffffffffffffffffffffffffffffffffffffff1663a9059cbb85846040518363ffffffff1660e01b8152600401610991929190611a8c565b6020604051808303816000875af11580156109b0573d6000803e3d6000fd5b505050506040513d601f19601f820116820180604052508101906109d49190611aed565b5080838573ffffffffffffffffffffffffffffffffffffffff167fdcfd2b4017d03f7e541021db793b2f9b31e4acdee005f789e52853c390e3e9624286604051610a1f929190611b1a565b60405180910390a450505050565b6000610a37611536565b905060003490506003544211610a82576040517f08c379a0000000000000000000000000000000000000000000000000000000008152600401610a7990611b8f565b60405180910390fd5b6004544210610ac6576040517f08c379a0000000000000000000000000000000000000000000000000000000008152600401610abd90611bfb565b60405180910390fd5b60b4600860008473ffffffffffffffffffffffffffffffffffffffff1673ffffffffffffffffffffffffffffffffffffffff1681526020019081526020016000206003015442610b169190611a58565b11610b56576040517f08c379a0000000000000000000000000000000000000000000000000000000008152600401610b4d90611c8d565b60405180910390fd5b6000610b6061134e565b90506000600860008573ffffffffffffffffffffffffffffffffffffffff1673ffffffffffffffffffffffffffffffffffffffff1681526020019081526020016000206000015403610c3b5742600860008573ffffffffffffffffffffffffffffffffffffffff1673ffffffffffffffffffffffffffffffffffffffff1681526020019081526020016000206001018190555080600860008573ffffffffffffffffffffffffffffffffffffffff1673ffffffffffffffffffffffffffffffffffffffff168152602001908152602001600020600201819055505b81600860008573ffffffffffffffffffffffffffffffffffffffff1673ffffffffffffffffffffffffffffffffffffffff1681526020019081526020016000206000016000828254610c8d9190611865565b925050819055506000600860008573ffffffffffffffffffffffffffffffffffffffff1673ffffffffffffffffffffffffffffffffffffffff168152602001908152602001600020600701805490509050600081118015610d57575081600860008673ffffffffffffffffffffffffffffffffffffffff1673ffffffffffffffffffffffffffffffffffffffff168152602001908152602001600020600701600183610d399190611a58565b81548110610d4a57610d49611899565b5b9060005260206000200154145b15610e1257600860008573ffffffffffffffffffffffffffffffffffffffff1673ffffffffffffffffffffffffffffffffffffffff16815260200190815260200160002060000154600860008673ffffffffffffffffffffffffffffffffffffffff1673ffffffffffffffffffffffffffffffffffffffff168152602001908152602001600020600801600183610dee9190611a58565b81548110610dff57610dfe611899565b5b9060005260206000200181905550610f27565b600860008573ffffffffffffffffffffffffffffffffffffffff1673ffffffffffffffffffffffffffffffffffffffff168152602001908152602001600020600701829080600181540180825580915050600190039060005260206000200160009091909190915055600860008573ffffffffffffffffffffffffffffffffffffffff1673ffffffffffffffffffffffffffffffffffffffff168152602001908152602001600020600801600860008673ffffffffffffffffffffffffffffffffffffffff1673ffffffffffffffffffffffffffffffffffffffff1681526020019081526020016000206000015490806001815401808255809150506001900390600052602060002001600090919091909150555b8260066000828254610f399190611865565b92505081905550600654600760008481526020019081526020016000208190555081838573ffffffffffffffffffffffffffffffffffffffff167fb4caaf29adda3eefee3ad552a8e85058589bf834c7466cae4ee58787f70589ed42604051610fa29190611729565b60405180910390a450505050565b6000610fba611536565b90506000600860008373ffffffffffffffffffffffffffffffffffffffff1673ffffffffffffffffffffffffffffffffffffffff1681526020019081526020016000206003015411611041576040517f08c379a000000000000000000000000000000000000000000000000000000000815260040161103890611cf9565b60405180910390fd5b600061104c826102bf565b905060008103611091576040517f08c379a000000000000000000000000000000000000000000000000000000000815260040161108890611d65565b60405180910390fd5b600061109c83611404565b90506000600860008573ffffffffffffffffffffffffffffffffffffffff1673ffffffffffffffffffffffffffffffffffffffff1681526020019081526020016000206006015414611131576000600860008573ffffffffffffffffffffffffffffffffffffffff1673ffffffffffffffffffffffffffffffffffffffff168152602001908152602001600020600601819055505b81600860008573ffffffffffffffffffffffffffffffffffffffff1673ffffffffffffffffffffffffffffffffffffffff16815260200190815260200160002060040160008282546111839190611865565b9250508190555080600860008573ffffffffffffffffffffffffffffffffffffffff1673ffffffffffffffffffffffffffffffffffffffff16815260200190815260200160002060050160008282546111dc9190611865565b92505081905550600160009054906101000a900473ffffffffffffffffffffffffffffffffffffffff1673ffffffffffffffffffffffffffffffffffffffff1663a9059cbb84846040518363ffffffff1660e01b8152600401611240929190611a8c565b6020604051808303816000875af115801561125f573d6000803e3d6000fd5b505050506040513d601f19601f820116820180604052508101906112839190611aed565b50505050565b60045481565b61129761153e565b6112a160006115bc565b565b60035481565b6112b161153e565b80600381905550601e6005546112c79190611939565b6003546112d49190611865565b60048190555050565b60065481565b60008060009054906101000a900473ffffffffffffffffffffffffffffffffffffffff16905090565b60086020528060005260406000206000915090508060000154908060010154908060020154908060030154908060040154908060050154908060060154905087565b6000806001600554600354426113649190611a58565b61136e91906119aa565b6113789190611865565b90508091505090565b61138961153e565b600073ffffffffffffffffffffffffffffffffffffffff168173ffffffffffffffffffffffffffffffffffffffff16036113f8576040517f08c379a00000000000000000000000000000000000000000000000000000000081526004016113ef90611df7565b60405180910390fd5b611401816115bc565b50565b6000806005546004546114179190611865565b42116114235742611434565b6005546004546114339190611865565b5b9050600080600860008673ffffffffffffffffffffffffffffffffffffffff1673ffffffffffffffffffffffffffffffffffffffff168152602001908152602001600020600101541461152c57600860008573ffffffffffffffffffffffffffffffffffffffff1673ffffffffffffffffffffffffffffffffffffffff16815260200190815260200160002060050154600554600860008773ffffffffffffffffffffffffffffffffffffffff1673ffffffffffffffffffffffffffffffffffffffff16815260200190815260200160002060010154846115159190611a58565b61151f91906119aa565b6115299190611a58565b90505b8092505050919050565b600033905090565b611546611536565b73ffffffffffffffffffffffffffffffffffffffff166115646112e3565b73ffffffffffffffffffffffffffffffffffffffff16146115ba576040517f08c379a00000000000000000000000000000000000000000000000000000000081526004016115b190611e63565b60405180910390fd5b565b60008060009054906101000a900473ffffffffffffffffffffffffffffffffffffffff169050816000806101000a81548173ffffffffffffffffffffffffffffffffffffffff021916908373ffffffffffffffffffffffffffffffffffffffff1602179055508173ffffffffffffffffffffffffffffffffffffffff168173ffffffffffffffffffffffffffffffffffffffff167f8be0079c531659141344cd1fd0a4f28419497f9722a3daafe3b4186f6b6457e060405160405180910390a35050565b600080fd5b600073ffffffffffffffffffffffffffffffffffffffff82169050919050565b60006116b082611685565b9050919050565b6116c0816116a5565b81146116cb57600080fd5b50565b6000813590506116dd816116b7565b92915050565b6000602082840312156116f9576116f8611680565b5b6000611707848285016116ce565b91505092915050565b6000819050919050565b61172381611710565b82525050565b600060208201905061173e600083018461171a565b92915050565b61174d81611710565b811461175857600080fd5b50565b60008135905061176a81611744565b92915050565b60006020828403121561178657611785611680565b5b60006117948482850161175b565b91505092915050565b6117a6816116a5565b82525050565b60006020820190506117c1600083018461179d565b92915050565b600060e0820190506117dc600083018a61171a565b6117e9602083018961171a565b6117f6604083018861171a565b611803606083018761171a565b611810608083018661171a565b61181d60a083018561171a565b61182a60c083018461171a565b98975050505050505050565b7f4e487b7100000000000000000000000000000000000000000000000000000000600052601160045260246000fd5b600061187082611710565b915061187b83611710565b925082820190508082111561189357611892611836565b5b92915050565b7f4e487b7100000000000000000000000000000000000000000000000000000000600052603260045260246000fd5b60006118d382611710565b91507fffffffffffffffffffffffffffffffffffffffffffffffffffffffffffffffff820361190557611904611836565b5b600182019050919050565b600061191b82611710565b91506000820361192e5761192d611836565b5b600182039050919050565b600061194482611710565b915061194f83611710565b925082820261195d81611710565b9150828204841483151761197457611973611836565b5b5092915050565b7f4e487b7100000000000000000000000000000000000000000000000000000000600052601260045260246000fd5b60006119b582611710565b91506119c083611710565b9250826119d0576119cf61197b565b5b828204905092915050565b600082825260208201905092915050565b7f596f7520646f206e6f742068617665207374616b656420746f6b656e73000000600082015250565b6000611a22601d836119db565b9150611a2d826119ec565b602082019050919050565b60006020820190508181036000830152611a5181611a15565b9050919050565b6000611a6382611710565b9150611a6e83611710565b9250828203905081811115611a8657611a85611836565b5b92915050565b6000604082019050611aa1600083018561179d565b611aae602083018461171a565b9392505050565b60008115159050919050565b611aca81611ab5565b8114611ad557600080fd5b50565b600081519050611ae781611ac1565b92915050565b600060208284031215611b0357611b02611680565b5b6000611b1184828501611ad8565b91505092915050565b6000604082019050611b2f600083018561171a565b611b3c602083018461171a565b9392505050565b7f5374616b696e6720706572696f64206973206e6f742073746172746564000000600082015250565b6000611b79601d836119db565b9150611b8482611b43565b602082019050919050565b60006020820190508181036000830152611ba881611b6c565b9050919050565b7f5374616b696e6720706572696f6420697320656e646564000000000000000000600082015250565b6000611be56017836119db565b9150611bf082611baf565b602082019050919050565b60006020820190508181036000830152611c1481611bd8565b9050919050565b7f54686520627265616b206265747765656e20746865207374616b65732073686f60008201527f756c642062652033206d696e7574657300000000000000000000000000000000602082015250565b6000611c776030836119db565b9150611c8282611c1b565b604082019050919050565b60006020820190508181036000830152611ca681611c6a565b9050919050565b7f596f75277665206e65766572206861642061207374616b650000000000000000600082015250565b6000611ce36018836119db565b9150611cee82611cad565b602082019050919050565b60006020820190508181036000830152611d1281611cd6565b9050919050565b7f596f7520646f6e2774206861766520617661696c61626c652072657761726400600082015250565b6000611d4f601f836119db565b9150611d5a82611d19565b602082019050919050565b60006020820190508181036000830152611d7e81611d42565b9050919050565b7f4f776e61626c653a206e6577206f776e657220697320746865207a65726f206160008201527f6464726573730000000000000000000000000000000000000000000000000000602082015250565b6000611de16026836119db565b9150611dec82611d85565b604082019050919050565b60006020820190508181036000830152611e1081611dd4565b9050919050565b7f4f776e61626c653a2063616c6c6572206973206e6f7420746865206f776e6572600082015250565b6000611e4d6020836119db565b9150611e5882611e17565b602082019050919050565b60006020820190508181036000830152611e7c81611e40565b905091905056fea264697066735822122045afd6122d8b4143c38fe8872b7665a017e33fe64308792de631c877597b787964736f6c63430008110033","opcodes":"PUSH1 0x80 PUSH1 0x40 MSTORE PUSH1 0x3 PUSH1 0x5 SSTORE CALLVALUE DUP1 ISZERO PUSH3 0x16 JUMPI PUSH1 0x0 DUP1 REVERT JUMPDEST POP PUSH1 0x40 MLOAD PUSH3 0x2216 CODESIZE SUB DUP1 PUSH3 0x2216 DUP4 CODECOPY DUP2 DUP2 ADD PUSH1 0x40 MSTORE DUP2 ADD SWAP1 PUSH3 0x3C SWAP2 SWAP1 PUSH3 0x25C JUMP JUMPDEST PUSH3 0x5C PUSH3 0x50 PUSH3 0x126 PUSH1 0x20 SHL PUSH1 0x20 SHR JUMP JUMPDEST PUSH3 0x12E PUSH1 0x20 SHL PUSH1 0x20 SHR JUMP JUMPDEST TIMESTAMP PUSH1 0x3 DUP2 SWAP1 SSTORE POP PUSH1 0x1E PUSH1 0x5 SLOAD PUSH3 0x74 SWAP2 SWAP1 PUSH3 0x2C7 JUMP JUMPDEST PUSH1 0x3 SLOAD PUSH3 0x83 SWAP2 SWAP1 PUSH3 0x312 JUMP JUMPDEST PUSH1 0x4 DUP2 SWAP1 SSTORE POP DUP1 PUSH1 0x1 PUSH1 0x0 PUSH2 0x100 EXP DUP2 SLOAD DUP2 PUSH20 0xFFFFFFFFFFFFFFFFFFFFFFFFFFFFFFFFFFFFFFFF MUL NOT AND SWAP1 DUP4 PUSH20 0xFFFFFFFFFFFFFFFFFFFFFFFFFFFFFFFFFFFFFFFF AND MUL OR SWAP1 SSTORE POP PUSH20 0x337610D27C682E347C9CD60BD4B3B107C9D34DDD PUSH1 0x2 PUSH1 0x0 PUSH2 0x100 EXP DUP2 SLOAD DUP2 PUSH20 0xFFFFFFFFFFFFFFFFFFFFFFFFFFFFFFFFFFFFFFFF MUL NOT AND SWAP1 DUP4 PUSH20 0xFFFFFFFFFFFFFFFFFFFFFFFFFFFFFFFFFFFFFFFF AND MUL OR SWAP1 SSTORE POP POP PUSH3 0x34D JUMP JUMPDEST PUSH1 0x0 CALLER SWAP1 POP SWAP1 JUMP JUMPDEST PUSH1 0x0 DUP1 PUSH1 0x0 SWAP1 SLOAD SWAP1 PUSH2 0x100 EXP SWAP1 DIV PUSH20 0xFFFFFFFFFFFFFFFFFFFFFFFFFFFFFFFFFFFFFFFF AND SWAP1 POP DUP2 PUSH1 0x0 DUP1 PUSH2 0x100 EXP DUP2 SLOAD DUP2 PUSH20 0xFFFFFFFFFFFFFFFFFFFFFFFFFFFFFFFFFFFFFFFF MUL NOT AND SWAP1 DUP4 PUSH20 0xFFFFFFFFFFFFFFFFFFFFFFFFFFFFFFFFFFFFFFFF AND MUL OR SWAP1 SSTORE POP DUP2 PUSH20 0xFFFFFFFFFFFFFFFFFFFFFFFFFFFFFFFFFFFFFFFF AND DUP2 PUSH20 0xFFFFFFFFFFFFFFFFFFFFFFFFFFFFFFFFFFFFFFFF AND PUSH32 0x8BE0079C531659141344CD1FD0A4F28419497F9722A3DAAFE3B4186F6B6457E0 PUSH1 0x40 MLOAD PUSH1 0x40 MLOAD DUP1 SWAP2 SUB SWAP1 LOG3 POP POP JUMP JUMPDEST PUSH1 0x0 DUP1 REVERT JUMPDEST PUSH1 0x0 PUSH20 0xFFFFFFFFFFFFFFFFFFFFFFFFFFFFFFFFFFFFFFFF DUP3 AND SWAP1 POP SWAP2 SWAP1 POP JUMP JUMPDEST PUSH1 0x0 PUSH3 0x224 DUP3 PUSH3 0x1F7 JUMP JUMPDEST SWAP1 POP SWAP2 SWAP1 POP JUMP JUMPDEST PUSH3 0x236 DUP2 PUSH3 0x217 JUMP JUMPDEST DUP2 EQ PUSH3 0x242 JUMPI PUSH1 0x0 DUP1 REVERT JUMPDEST POP JUMP JUMPDEST PUSH1 0x0 DUP2 MLOAD SWAP1 POP PUSH3 0x256 DUP2 PUSH3 0x22B JUMP JUMPDEST SWAP3 SWAP2 POP POP JUMP JUMPDEST PUSH1 0x0 PUSH1 0x20 DUP3 DUP5 SUB SLT ISZERO PUSH3 0x275 JUMPI PUSH3 0x274 PUSH3 0x1F2 JUMP JUMPDEST JUMPDEST PUSH1 0x0 PUSH3 0x285 DUP5 DUP3 DUP6 ADD PUSH3 0x245 JUMP JUMPDEST SWAP2 POP POP SWAP3 SWAP2 POP POP JUMP JUMPDEST PUSH1 0x0 DUP2 SWAP1 POP SWAP2 SWAP1 POP JUMP JUMPDEST PUSH32 0x4E487B7100000000000000000000000000000000000000000000000000000000 PUSH1 0x0 MSTORE PUSH1 0x11 PUSH1 0x4 MSTORE PUSH1 0x24 PUSH1 0x0 REVERT JUMPDEST PUSH1 0x0 PUSH3 0x2D4 DUP3 PUSH3 0x28E JUMP JUMPDEST SWAP2 POP PUSH3 0x2E1 DUP4 PUSH3 0x28E JUMP JUMPDEST SWAP3 POP DUP3 DUP3 MUL PUSH3 0x2F1 DUP2 PUSH3 0x28E JUMP JUMPDEST SWAP2 POP DUP3 DUP3 DIV DUP5 EQ DUP4 ISZERO OR PUSH3 0x30B JUMPI PUSH3 0x30A PUSH3 0x298 JUMP JUMPDEST JUMPDEST POP SWAP3 SWAP2 POP POP JUMP JUMPDEST PUSH1 0x0 PUSH3 0x31F DUP3 PUSH3 0x28E JUMP JUMPDEST SWAP2 POP PUSH3 0x32C DUP4 PUSH3 0x28E JUMP JUMPDEST SWAP3 POP DUP3 DUP3 ADD SWAP1 POP DUP1 DUP3 GT ISZERO PUSH3 0x347 JUMPI PUSH3 0x346 PUSH3 0x298 JUMP JUMPDEST JUMPDEST SWAP3 SWAP2 POP POP JUMP JUMPDEST PUSH2 0x1EB9 DUP1 PUSH3 0x35D PUSH1 0x0 CODECOPY PUSH1 0x0 RETURN INVALID PUSH1 0x80 PUSH1 0x40 MSTORE PUSH1 0x4 CALLDATASIZE LT PUSH2 0xC2 JUMPI PUSH1 0x0 CALLDATALOAD PUSH1 0xE0 SHR DUP1 PUSH4 0x71AEC515 GT PUSH2 0x7F JUMPI DUP1 PUSH4 0x8DA5CB5B GT PUSH2 0x59 JUMPI DUP1 PUSH4 0x8DA5CB5B EQ PUSH2 0x1FD JUMPI DUP1 PUSH4 0xA87430BA EQ PUSH2 0x228 JUMPI DUP1 PUSH4 0xD72605F5 EQ PUSH2 0x26B JUMPI DUP1 PUSH4 0xF2FDE38B EQ PUSH2 0x296 JUMPI PUSH2 0xC2 JUMP JUMPDEST DUP1 PUSH4 0x71AEC515 EQ PUSH2 0x17E JUMPI DUP1 PUSH4 0x77999FFB EQ PUSH2 0x1A9 JUMPI DUP1 PUSH4 0x817B1CD2 EQ PUSH2 0x1D2 JUMPI PUSH2 0xC2 JUMP JUMPDEST DUP1 PUSH4 0x66FD899 EQ PUSH2 0xC7 JUMPI DUP1 PUSH4 0x2DEF6620 EQ PUSH2 0x104 JUMPI DUP1 PUSH4 0x3A4B66F1 EQ PUSH2 0x11B JUMPI DUP1 PUSH4 0x3D18B912 EQ PUSH2 0x125 JUMPI DUP1 PUSH4 0x5610E542 EQ PUSH2 0x13C JUMPI DUP1 PUSH4 0x715018A6 EQ PUSH2 0x167 JUMPI JUMPDEST PUSH1 0x0 DUP1 REVERT JUMPDEST CALLVALUE DUP1 ISZERO PUSH2 0xD3 JUMPI PUSH1 0x0 DUP1 REVERT JUMPDEST POP PUSH2 0xEE PUSH1 0x4 DUP1 CALLDATASIZE SUB DUP2 ADD SWAP1 PUSH2 0xE9 SWAP2 SWAP1 PUSH2 0x16E3 JUMP JUMPDEST PUSH2 0x2BF JUMP JUMPDEST PUSH1 0x40 MLOAD PUSH2 0xFB SWAP2 SWAP1 PUSH2 0x1729 JUMP JUMPDEST PUSH1 0x40 MLOAD DUP1 SWAP2 SUB SWAP1 RETURN JUMPDEST CALLVALUE DUP1 ISZERO PUSH2 0x110 JUMPI PUSH1 0x0 DUP1 REVERT JUMPDEST POP PUSH2 0x119 PUSH2 0x5A1 JUMP JUMPDEST STOP JUMPDEST PUSH2 0x123 PUSH2 0xA2D JUMP JUMPDEST STOP JUMPDEST CALLVALUE DUP1 ISZERO PUSH2 0x131 JUMPI PUSH1 0x0 DUP1 REVERT JUMPDEST POP PUSH2 0x13A PUSH2 0xFB0 JUMP JUMPDEST STOP JUMPDEST CALLVALUE DUP1 ISZERO PUSH2 0x148 JUMPI PUSH1 0x0 DUP1 REVERT JUMPDEST POP PUSH2 0x151 PUSH2 0x1289 JUMP JUMPDEST PUSH1 0x40 MLOAD PUSH2 0x15E SWAP2 SWAP1 PUSH2 0x1729 JUMP JUMPDEST PUSH1 0x40 MLOAD DUP1 SWAP2 SUB SWAP1 RETURN JUMPDEST CALLVALUE DUP1 ISZERO PUSH2 0x173 JUMPI PUSH1 0x0 DUP1 REVERT JUMPDEST POP PUSH2 0x17C PUSH2 0x128F JUMP JUMPDEST STOP JUMPDEST CALLVALUE DUP1 ISZERO PUSH2 0x18A JUMPI PUSH1 0x0 DUP1 REVERT JUMPDEST POP PUSH2 0x193 PUSH2 0x12A3 JUMP JUMPDEST PUSH1 0x40 MLOAD PUSH2 0x1A0 SWAP2 SWAP1 PUSH2 0x1729 JUMP JUMPDEST PUSH1 0x40 MLOAD DUP1 SWAP2 SUB SWAP1 RETURN JUMPDEST CALLVALUE DUP1 ISZERO PUSH2 0x1B5 JUMPI PUSH1 0x0 DUP1 REVERT JUMPDEST POP PUSH2 0x1D0 PUSH1 0x4 DUP1 CALLDATASIZE SUB DUP2 ADD SWAP1 PUSH2 0x1CB SWAP2 SWAP1 PUSH2 0x1770 JUMP JUMPDEST PUSH2 0x12A9 JUMP JUMPDEST STOP JUMPDEST CALLVALUE DUP1 ISZERO PUSH2 0x1DE JUMPI PUSH1 0x0 DUP1 REVERT JUMPDEST POP PUSH2 0x1E7 PUSH2 0x12DD JUMP JUMPDEST PUSH1 0x40 MLOAD PUSH2 0x1F4 SWAP2 SWAP1 PUSH2 0x1729 JUMP JUMPDEST PUSH1 0x40 MLOAD DUP1 SWAP2 SUB SWAP1 RETURN JUMPDEST CALLVALUE DUP1 ISZERO PUSH2 0x209 JUMPI PUSH1 0x0 DUP1 REVERT JUMPDEST POP PUSH2 0x212 PUSH2 0x12E3 JUMP JUMPDEST PUSH1 0x40 MLOAD PUSH2 0x21F SWAP2 SWAP1 PUSH2 0x17AC JUMP JUMPDEST PUSH1 0x40 MLOAD DUP1 SWAP2 SUB SWAP1 RETURN JUMPDEST CALLVALUE DUP1 ISZERO PUSH2 0x234 JUMPI PUSH1 0x0 DUP1 REVERT JUMPDEST POP PUSH2 0x24F PUSH1 0x4 DUP1 CALLDATASIZE SUB DUP2 ADD SWAP1 PUSH2 0x24A SWAP2 SWAP1 PUSH2 0x16E3 JUMP JUMPDEST PUSH2 0x130C JUMP JUMPDEST PUSH1 0x40 MLOAD PUSH2 0x262 SWAP8 SWAP7 SWAP6 SWAP5 SWAP4 SWAP3 SWAP2 SWAP1 PUSH2 0x17C7 JUMP JUMPDEST PUSH1 0x40 MLOAD DUP1 SWAP2 SUB SWAP1 RETURN JUMPDEST CALLVALUE DUP1 ISZERO PUSH2 0x277 JUMPI PUSH1 0x0 DUP1 REVERT JUMPDEST POP PUSH2 0x280 PUSH2 0x134E JUMP JUMPDEST PUSH1 0x40 MLOAD PUSH2 0x28D SWAP2 SWAP1 PUSH2 0x1729 JUMP JUMPDEST PUSH1 0x40 MLOAD DUP1 SWAP2 SUB SWAP1 RETURN JUMPDEST CALLVALUE DUP1 ISZERO PUSH2 0x2A2 JUMPI PUSH1 0x0 DUP1 REVERT JUMPDEST POP PUSH2 0x2BD PUSH1 0x4 DUP1 CALLDATASIZE SUB DUP2 ADD SWAP1 PUSH2 0x2B8 SWAP2 SWAP1 PUSH2 0x16E3 JUMP JUMPDEST PUSH2 0x1381 JUMP JUMPDEST STOP JUMPDEST PUSH1 0x0 DUP1 PUSH1 0x0 DUP1 PUSH1 0x8 PUSH1 0x0 DUP7 PUSH20 0xFFFFFFFFFFFFFFFFFFFFFFFFFFFFFFFFFFFFFFFF AND PUSH20 0xFFFFFFFFFFFFFFFFFFFFFFFFFFFFFFFFFFFFFFFF AND DUP2 MSTORE PUSH1 0x20 ADD SWAP1 DUP2 MSTORE PUSH1 0x20 ADD PUSH1 0x0 KECCAK256 PUSH1 0x2 ADD SLOAD SWAP1 POP PUSH1 0x0 PUSH2 0x315 DUP7 PUSH2 0x1404 JUMP JUMPDEST SWAP1 POP PUSH1 0x0 PUSH1 0x8 PUSH1 0x0 DUP9 PUSH20 0xFFFFFFFFFFFFFFFFFFFFFFFFFFFFFFFFFFFFFFFF AND PUSH20 0xFFFFFFFFFFFFFFFFFFFFFFFFFFFFFFFFFFFFFFFF AND DUP2 MSTORE PUSH1 0x20 ADD SWAP1 DUP2 MSTORE PUSH1 0x20 ADD PUSH1 0x0 KECCAK256 PUSH1 0x5 ADD SLOAD DUP4 PUSH2 0x367 SWAP2 SWAP1 PUSH2 0x1865 JUMP JUMPDEST SWAP1 POP JUMPDEST DUP2 DUP4 PUSH2 0x376 SWAP2 SWAP1 PUSH2 0x1865 JUMP JUMPDEST DUP2 LT ISZERO PUSH2 0x544 JUMPI JUMPDEST DUP1 PUSH1 0x8 PUSH1 0x0 DUP10 PUSH20 0xFFFFFFFFFFFFFFFFFFFFFFFFFFFFFFFFFFFFFFFF AND PUSH20 0xFFFFFFFFFFFFFFFFFFFFFFFFFFFFFFFFFFFFFFFF AND DUP2 MSTORE PUSH1 0x20 ADD SWAP1 DUP2 MSTORE PUSH1 0x20 ADD PUSH1 0x0 KECCAK256 PUSH1 0x7 ADD DUP7 DUP2 SLOAD DUP2 LT PUSH2 0x3D3 JUMPI PUSH2 0x3D2 PUSH2 0x1899 JUMP JUMPDEST JUMPDEST SWAP1 PUSH1 0x0 MSTORE PUSH1 0x20 PUSH1 0x0 KECCAK256 ADD SLOAD GT DUP1 PUSH2 0x447 JUMPI POP DUP3 PUSH1 0x8 PUSH1 0x0 DUP10 PUSH20 0xFFFFFFFFFFFFFFFFFFFFFFFFFFFFFFFFFFFFFFFF AND PUSH20 0xFFFFFFFFFFFFFFFFFFFFFFFFFFFFFFFFFFFFFFFF AND DUP2 MSTORE PUSH1 0x20 ADD SWAP1 DUP2 MSTORE PUSH1 0x20 ADD PUSH1 0x0 KECCAK256 PUSH1 0x7 ADD DUP7 DUP2 SLOAD DUP2 LT PUSH2 0x43A JUMPI PUSH2 0x439 PUSH2 0x1899 JUMP JUMPDEST JUMPDEST SWAP1 PUSH1 0x0 MSTORE PUSH1 0x20 PUSH1 0x0 KECCAK256 ADD SLOAD LT JUMPDEST ISZERO PUSH2 0x45F JUMPI DUP5 DUP1 PUSH2 0x457 SWAP1 PUSH2 0x18C8 JUMP JUMPDEST SWAP6 POP POP PUSH2 0x37E JUMP JUMPDEST PUSH1 0x0 DUP2 SWAP1 POP JUMPDEST PUSH1 0x0 PUSH1 0x7 PUSH1 0x0 DUP4 DUP2 MSTORE PUSH1 0x20 ADD SWAP1 DUP2 MSTORE PUSH1 0x20 ADD PUSH1 0x0 KECCAK256 SLOAD SUB PUSH2 0x493 JUMPI DUP1 DUP1 PUSH2 0x48B SWAP1 PUSH2 0x1910 JUMP JUMPDEST SWAP2 POP POP PUSH2 0x465 JUMP JUMPDEST PUSH1 0x0 PUSH1 0x7 PUSH1 0x0 DUP4 DUP2 MSTORE PUSH1 0x20 ADD SWAP1 DUP2 MSTORE PUSH1 0x20 ADD PUSH1 0x0 KECCAK256 SLOAD SWAP1 POP DUP1 PUSH2 0x3E8 PUSH1 0x8 PUSH1 0x0 DUP13 PUSH20 0xFFFFFFFFFFFFFFFFFFFFFFFFFFFFFFFFFFFFFFFF AND PUSH20 0xFFFFFFFFFFFFFFFFFFFFFFFFFFFFFFFFFFFFFFFF AND DUP2 MSTORE PUSH1 0x20 ADD SWAP1 DUP2 MSTORE PUSH1 0x20 ADD PUSH1 0x0 KECCAK256 PUSH1 0x8 ADD DUP10 DUP2 SLOAD DUP2 LT PUSH2 0x503 JUMPI PUSH2 0x502 PUSH2 0x1899 JUMP JUMPDEST JUMPDEST SWAP1 PUSH1 0x0 MSTORE PUSH1 0x20 PUSH1 0x0 KECCAK256 ADD SLOAD PUSH2 0x518 SWAP2 SWAP1 PUSH2 0x1939 JUMP JUMPDEST PUSH2 0x522 SWAP2 SWAP1 PUSH2 0x19AA JUMP JUMPDEST DUP7 PUSH2 0x52D SWAP2 SWAP1 PUSH2 0x1865 JUMP JUMPDEST SWAP6 POP POP POP DUP1 DUP1 PUSH2 0x53C SWAP1 PUSH2 0x18C8 JUMP JUMPDEST SWAP2 POP POP PUSH2 0x36A JUMP JUMPDEST POP PUSH1 0x8 PUSH1 0x0 DUP8 PUSH20 0xFFFFFFFFFFFFFFFFFFFFFFFFFFFFFFFFFFFFFFFF AND PUSH20 0xFFFFFFFFFFFFFFFFFFFFFFFFFFFFFFFFFFFFFFFF AND DUP2 MSTORE PUSH1 0x20 ADD SWAP1 DUP2 MSTORE PUSH1 0x20 ADD PUSH1 0x0 KECCAK256 PUSH1 0x6 ADD SLOAD DUP4 PUSH2 0x593 SWAP2 SWAP1 PUSH2 0x1865 JUMP JUMPDEST SWAP3 POP DUP3 SWAP5 POP POP POP POP POP SWAP2 SWAP1 POP JUMP JUMPDEST PUSH1 0x0 PUSH2 0x5AB PUSH2 0x1536 JUMP JUMPDEST SWAP1 POP PUSH1 0x0 PUSH1 0x8 PUSH1 0x0 DUP4 PUSH20 0xFFFFFFFFFFFFFFFFFFFFFFFFFFFFFFFFFFFFFFFF AND PUSH20 0xFFFFFFFFFFFFFFFFFFFFFFFFFFFFFFFFFFFFFFFF AND DUP2 MSTORE PUSH1 0x20 ADD SWAP1 DUP2 MSTORE PUSH1 0x20 ADD PUSH1 0x0 KECCAK256 PUSH1 0x0 ADD SLOAD SWAP1 POP PUSH1 0x0 DUP2 SUB PUSH2 0x637 JUMPI PUSH1 0x40 MLOAD PUSH32 0x8C379A000000000000000000000000000000000000000000000000000000000 DUP2 MSTORE PUSH1 0x4 ADD PUSH2 0x62E SWAP1 PUSH2 0x1A38 JUMP JUMPDEST PUSH1 0x40 MLOAD DUP1 SWAP2 SUB SWAP1 REVERT JUMPDEST PUSH1 0x0 PUSH1 0x8 PUSH1 0x0 DUP5 PUSH20 0xFFFFFFFFFFFFFFFFFFFFFFFFFFFFFFFFFFFFFFFF AND PUSH20 0xFFFFFFFFFFFFFFFFFFFFFFFFFFFFFFFFFFFFFFFF AND DUP2 MSTORE PUSH1 0x20 ADD SWAP1 DUP2 MSTORE PUSH1 0x20 ADD PUSH1 0x0 KECCAK256 PUSH1 0x6 ADD SLOAD PUSH2 0x685 DUP5 PUSH2 0x2BF JUMP JUMPDEST PUSH2 0x68F SWAP2 SWAP1 PUSH2 0x1865 JUMP JUMPDEST SWAP1 POP PUSH1 0x0 PUSH2 0x69B PUSH2 0x134E JUMP JUMPDEST SWAP1 POP PUSH1 0x1F DUP2 GT ISZERO DUP1 ISZERO PUSH2 0x713 JUMPI POP PUSH1 0x5 SLOAD PUSH1 0x1 DUP3 PUSH2 0x6B9 SWAP2 SWAP1 PUSH2 0x1A58 JUMP JUMPDEST PUSH2 0x6C3 SWAP2 SWAP1 PUSH2 0x1939 JUMP JUMPDEST PUSH1 0x8 PUSH1 0x0 DUP7 PUSH20 0xFFFFFFFFFFFFFFFFFFFFFFFFFFFFFFFFFFFFFFFF AND PUSH20 0xFFFFFFFFFFFFFFFFFFFFFFFFFFFFFFFFFFFFFFFF AND DUP2 MSTORE PUSH1 0x20 ADD SWAP1 DUP2 MSTORE PUSH1 0x20 ADD PUSH1 0x0 KECCAK256 PUSH1 0x1 ADD SLOAD PUSH2 0x710 SWAP2 SWAP1 PUSH2 0x1865 JUMP JUMPDEST TIMESTAMP LT JUMPDEST ISZERO PUSH2 0x829 JUMPI PUSH1 0x6 SLOAD PUSH2 0x3E8 PUSH1 0x8 PUSH1 0x0 DUP8 PUSH20 0xFFFFFFFFFFFFFFFFFFFFFFFFFFFFFFFFFFFFFFFF AND PUSH20 0xFFFFFFFFFFFFFFFFFFFFFFFFFFFFFFFFFFFFFFFF AND DUP2 MSTORE PUSH1 0x20 ADD SWAP1 DUP2 MSTORE PUSH1 0x20 ADD PUSH1 0x0 KECCAK256 PUSH1 0x8 ADD PUSH1 0x1 PUSH1 0x8 PUSH1 0x0 DUP10 PUSH20 0xFFFFFFFFFFFFFFFFFFFFFFFFFFFFFFFFFFFFFFFF AND PUSH20 0xFFFFFFFFFFFFFFFFFFFFFFFFFFFFFFFFFFFFFFFF AND DUP2 MSTORE PUSH1 0x20 ADD SWAP1 DUP2 MSTORE PUSH1 0x20 ADD PUSH1 0x0 KECCAK256 PUSH1 0x8 ADD DUP1 SLOAD SWAP1 POP PUSH2 0x7B2 SWAP2 SWAP1 PUSH2 0x1A58 JUMP JUMPDEST DUP2 SLOAD DUP2 LT PUSH2 0x7C3 JUMPI PUSH2 0x7C2 PUSH2 0x1899 JUMP JUMPDEST JUMPDEST SWAP1 PUSH1 0x0 MSTORE PUSH1 0x20 PUSH1 0x0 KECCAK256 ADD SLOAD PUSH2 0x7D8 SWAP2 SWAP1 PUSH2 0x1939 JUMP JUMPDEST PUSH2 0x7E2 SWAP2 SWAP1 PUSH2 0x19AA JUMP JUMPDEST PUSH1 0x8 PUSH1 0x0 DUP7 PUSH20 0xFFFFFFFFFFFFFFFFFFFFFFFFFFFFFFFFFFFFFFFF AND PUSH20 0xFFFFFFFFFFFFFFFFFFFFFFFFFFFFFFFFFFFFFFFF AND DUP2 MSTORE PUSH1 0x20 ADD SWAP1 DUP2 MSTORE PUSH1 0x20 ADD PUSH1 0x0 KECCAK256 PUSH1 0x6 ADD DUP2 SWAP1 SSTORE POP JUMPDEST PUSH1 0x0 PUSH1 0x8 PUSH1 0x0 DUP7 PUSH20 0xFFFFFFFFFFFFFFFFFFFFFFFFFFFFFFFFFFFFFFFF AND PUSH20 0xFFFFFFFFFFFFFFFFFFFFFFFFFFFFFFFFFFFFFFFF AND DUP2 MSTORE PUSH1 0x20 ADD SWAP1 DUP2 MSTORE PUSH1 0x20 ADD PUSH1 0x0 KECCAK256 PUSH1 0x4 ADD DUP2 SWAP1 SSTORE POP PUSH1 0x0 PUSH1 0x8 PUSH1 0x0 DUP7 PUSH20 0xFFFFFFFFFFFFFFFFFFFFFFFFFFFFFFFFFFFFFFFF AND PUSH20 0xFFFFFFFFFFFFFFFFFFFFFFFFFFFFFFFFFFFFFFFF AND DUP2 MSTORE PUSH1 0x20 ADD SWAP1 DUP2 MSTORE PUSH1 0x20 ADD PUSH1 0x0 KECCAK256 PUSH1 0x0 ADD DUP2 SWAP1 SSTORE POP PUSH1 0x0 PUSH1 0x8 PUSH1 0x0 DUP7 PUSH20 0xFFFFFFFFFFFFFFFFFFFFFFFFFFFFFFFFFFFFFFFF AND PUSH20 0xFFFFFFFFFFFFFFFFFFFFFFFFFFFFFFFFFFFFFFFF AND DUP2 MSTORE PUSH1 0x20 ADD SWAP1 DUP2 MSTORE PUSH1 0x20 ADD PUSH1 0x0 KECCAK256 PUSH1 0x1 ADD DUP2 SWAP1 SSTORE POP DUP3 PUSH1 0x6 PUSH1 0x0 DUP3 DUP3 SLOAD PUSH2 0x913 SWAP2 SWAP1 PUSH2 0x1A58 JUMP JUMPDEST SWAP3 POP POP DUP2 SWAP1 SSTORE POP PUSH1 0x6 SLOAD PUSH1 0x7 PUSH1 0x0 DUP4 DUP2 MSTORE PUSH1 0x20 ADD SWAP1 DUP2 MSTORE PUSH1 0x20 ADD PUSH1 0x0 KECCAK256 DUP2 SWAP1 SSTORE POP PUSH1 0x1 PUSH1 0x0 SWAP1 SLOAD SWAP1 PUSH2 0x100 EXP SWAP1 DIV PUSH20 0xFFFFFFFFFFFFFFFFFFFFFFFFFFFFFFFFFFFFFFFF AND PUSH20 0xFFFFFFFFFFFFFFFFFFFFFFFFFFFFFFFFFFFFFFFF AND PUSH4 0xA9059CBB DUP6 DUP5 PUSH1 0x40 MLOAD DUP4 PUSH4 0xFFFFFFFF AND PUSH1 0xE0 SHL DUP2 MSTORE PUSH1 0x4 ADD PUSH2 0x991 SWAP3 SWAP2 SWAP1 PUSH2 0x1A8C JUMP JUMPDEST PUSH1 0x20 PUSH1 0x40 MLOAD DUP1 DUP4 SUB DUP2 PUSH1 0x0 DUP8 GAS CALL ISZERO DUP1 ISZERO PUSH2 0x9B0 JUMPI RETURNDATASIZE PUSH1 0x0 DUP1 RETURNDATACOPY RETURNDATASIZE PUSH1 0x0 REVERT JUMPDEST POP POP POP POP PUSH1 0x40 MLOAD RETURNDATASIZE PUSH1 0x1F NOT PUSH1 0x1F DUP3 ADD AND DUP3 ADD DUP1 PUSH1 0x40 MSTORE POP DUP2 ADD SWAP1 PUSH2 0x9D4 SWAP2 SWAP1 PUSH2 0x1AED JUMP JUMPDEST POP DUP1 DUP4 DUP6 PUSH20 0xFFFFFFFFFFFFFFFFFFFFFFFFFFFFFFFFFFFFFFFF AND PUSH32 0xDCFD2B4017D03F7E541021DB793B2F9B31E4ACDEE005F789E52853C390E3E962 TIMESTAMP DUP7 PUSH1 0x40 MLOAD PUSH2 0xA1F SWAP3 SWAP2 SWAP1 PUSH2 0x1B1A JUMP JUMPDEST PUSH1 0x40 MLOAD DUP1 SWAP2 SUB SWAP1 LOG4 POP POP POP POP JUMP JUMPDEST PUSH1 0x0 PUSH2 0xA37 PUSH2 0x1536 JUMP JUMPDEST SWAP1 POP PUSH1 0x0 CALLVALUE SWAP1 POP PUSH1 0x3 SLOAD TIMESTAMP GT PUSH2 0xA82 JUMPI PUSH1 0x40 MLOAD PUSH32 0x8C379A000000000000000000000000000000000000000000000000000000000 DUP2 MSTORE PUSH1 0x4 ADD PUSH2 0xA79 SWAP1 PUSH2 0x1B8F JUMP JUMPDEST PUSH1 0x40 MLOAD DUP1 SWAP2 SUB SWAP1 REVERT JUMPDEST PUSH1 0x4 SLOAD TIMESTAMP LT PUSH2 0xAC6 JUMPI PUSH1 0x40 MLOAD PUSH32 0x8C379A000000000000000000000000000000000000000000000000000000000 DUP2 MSTORE PUSH1 0x4 ADD PUSH2 0xABD SWAP1 PUSH2 0x1BFB JUMP JUMPDEST PUSH1 0x40 MLOAD DUP1 SWAP2 SUB SWAP1 REVERT JUMPDEST PUSH1 0xB4 PUSH1 0x8 PUSH1 0x0 DUP5 PUSH20 0xFFFFFFFFFFFFFFFFFFFFFFFFFFFFFFFFFFFFFFFF AND PUSH20 0xFFFFFFFFFFFFFFFFFFFFFFFFFFFFFFFFFFFFFFFF AND DUP2 MSTORE PUSH1 0x20 ADD SWAP1 DUP2 MSTORE PUSH1 0x20 ADD PUSH1 0x0 KECCAK256 PUSH1 0x3 ADD SLOAD TIMESTAMP PUSH2 0xB16 SWAP2 SWAP1 PUSH2 0x1A58 JUMP JUMPDEST GT PUSH2 0xB56 JUMPI PUSH1 0x40 MLOAD PUSH32 0x8C379A000000000000000000000000000000000000000000000000000000000 DUP2 MSTORE PUSH1 0x4 ADD PUSH2 0xB4D SWAP1 PUSH2 0x1C8D JUMP JUMPDEST PUSH1 0x40 MLOAD DUP1 SWAP2 SUB SWAP1 REVERT JUMPDEST PUSH1 0x0 PUSH2 0xB60 PUSH2 0x134E JUMP JUMPDEST SWAP1 POP PUSH1 0x0 PUSH1 0x8 PUSH1 0x0 DUP6 PUSH20 0xFFFFFFFFFFFFFFFFFFFFFFFFFFFFFFFFFFFFFFFF AND PUSH20 0xFFFFFFFFFFFFFFFFFFFFFFFFFFFFFFFFFFFFFFFF AND DUP2 MSTORE PUSH1 0x20 ADD SWAP1 DUP2 MSTORE PUSH1 0x20 ADD PUSH1 0x0 KECCAK256 PUSH1 0x0 ADD SLOAD SUB PUSH2 0xC3B JUMPI TIMESTAMP PUSH1 0x8 PUSH1 0x0 DUP6 PUSH20 0xFFFFFFFFFFFFFFFFFFFFFFFFFFFFFFFFFFFFFFFF AND PUSH20 0xFFFFFFFFFFFFFFFFFFFFFFFFFFFFFFFFFFFFFFFF AND DUP2 MSTORE PUSH1 0x20 ADD SWAP1 DUP2 MSTORE PUSH1 0x20 ADD PUSH1 0x0 KECCAK256 PUSH1 0x1 ADD DUP2 SWAP1 SSTORE POP DUP1 PUSH1 0x8 PUSH1 0x0 DUP6 PUSH20 0xFFFFFFFFFFFFFFFFFFFFFFFFFFFFFFFFFFFFFFFF AND PUSH20 0xFFFFFFFFFFFFFFFFFFFFFFFFFFFFFFFFFFFFFFFF AND DUP2 MSTORE PUSH1 0x20 ADD SWAP1 DUP2 MSTORE PUSH1 0x20 ADD PUSH1 0x0 KECCAK256 PUSH1 0x2 ADD DUP2 SWAP1 SSTORE POP JUMPDEST DUP2 PUSH1 0x8 PUSH1 0x0 DUP6 PUSH20 0xFFFFFFFFFFFFFFFFFFFFFFFFFFFFFFFFFFFFFFFF AND PUSH20 0xFFFFFFFFFFFFFFFFFFFFFFFFFFFFFFFFFFFFFFFF AND DUP2 MSTORE PUSH1 0x20 ADD SWAP1 DUP2 MSTORE PUSH1 0x20 ADD PUSH1 0x0 KECCAK256 PUSH1 0x0 ADD PUSH1 0x0 DUP3 DUP3 SLOAD PUSH2 0xC8D SWAP2 SWAP1 PUSH2 0x1865 JUMP JUMPDEST SWAP3 POP POP DUP2 SWAP1 SSTORE POP PUSH1 0x0 PUSH1 0x8 PUSH1 0x0 DUP6 PUSH20 0xFFFFFFFFFFFFFFFFFFFFFFFFFFFFFFFFFFFFFFFF AND PUSH20 0xFFFFFFFFFFFFFFFFFFFFFFFFFFFFFFFFFFFFFFFF AND DUP2 MSTORE PUSH1 0x20 ADD SWAP1 DUP2 MSTORE PUSH1 0x20 ADD PUSH1 0x0 KECCAK256 PUSH1 0x7 ADD DUP1 SLOAD SWAP1 POP SWAP1 POP PUSH1 0x0 DUP2 GT DUP1 ISZERO PUSH2 0xD57 JUMPI POP DUP2 PUSH1 0x8 PUSH1 0x0 DUP7 PUSH20 0xFFFFFFFFFFFFFFFFFFFFFFFFFFFFFFFFFFFFFFFF AND PUSH20 0xFFFFFFFFFFFFFFFFFFFFFFFFFFFFFFFFFFFFFFFF AND DUP2 MSTORE PUSH1 0x20 ADD SWAP1 DUP2 MSTORE PUSH1 0x20 ADD PUSH1 0x0 KECCAK256 PUSH1 0x7 ADD PUSH1 0x1 DUP4 PUSH2 0xD39 SWAP2 SWAP1 PUSH2 0x1A58 JUMP JUMPDEST DUP2 SLOAD DUP2 LT PUSH2 0xD4A JUMPI PUSH2 0xD49 PUSH2 0x1899 JUMP JUMPDEST JUMPDEST SWAP1 PUSH1 0x0 MSTORE PUSH1 0x20 PUSH1 0x0 KECCAK256 ADD SLOAD EQ JUMPDEST ISZERO PUSH2 0xE12 JUMPI PUSH1 0x8 PUSH1 0x0 DUP6 PUSH20 0xFFFFFFFFFFFFFFFFFFFFFFFFFFFFFFFFFFFFFFFF AND PUSH20 0xFFFFFFFFFFFFFFFFFFFFFFFFFFFFFFFFFFFFFFFF AND DUP2 MSTORE PUSH1 0x20 ADD SWAP1 DUP2 MSTORE PUSH1 0x20 ADD PUSH1 0x0 KECCAK256 PUSH1 0x0 ADD SLOAD PUSH1 0x8 PUSH1 0x0 DUP7 PUSH20 0xFFFFFFFFFFFFFFFFFFFFFFFFFFFFFFFFFFFFFFFF AND PUSH20 0xFFFFFFFFFFFFFFFFFFFFFFFFFFFFFFFFFFFFFFFF AND DUP2 MSTORE PUSH1 0x20 ADD SWAP1 DUP2 MSTORE PUSH1 0x20 ADD PUSH1 0x0 KECCAK256 PUSH1 0x8 ADD PUSH1 0x1 DUP4 PUSH2 0xDEE SWAP2 SWAP1 PUSH2 0x1A58 JUMP JUMPDEST DUP2 SLOAD DUP2 LT PUSH2 0xDFF JUMPI PUSH2 0xDFE PUSH2 0x1899 JUMP JUMPDEST JUMPDEST SWAP1 PUSH1 0x0 MSTORE PUSH1 0x20 PUSH1 0x0 KECCAK256 ADD DUP2 SWAP1 SSTORE POP PUSH2 0xF27 JUMP JUMPDEST PUSH1 0x8 PUSH1 0x0 DUP6 PUSH20 0xFFFFFFFFFFFFFFFFFFFFFFFFFFFFFFFFFFFFFFFF AND PUSH20 0xFFFFFFFFFFFFFFFFFFFFFFFFFFFFFFFFFFFFFFFF AND DUP2 MSTORE PUSH1 0x20 ADD SWAP1 DUP2 MSTORE PUSH1 0x20 ADD PUSH1 0x0 KECCAK256 PUSH1 0x7 ADD DUP3 SWAP1 DUP1 PUSH1 0x1 DUP2 SLOAD ADD DUP1 DUP3 SSTORE DUP1 SWAP2 POP POP PUSH1 0x1 SWAP1 SUB SWAP1 PUSH1 0x0 MSTORE PUSH1 0x20 PUSH1 0x0 KECCAK256 ADD PUSH1 0x0 SWAP1 SWAP2 SWAP1 SWAP2 SWAP1 SWAP2 POP SSTORE PUSH1 0x8 PUSH1 0x0 DUP6 PUSH20 0xFFFFFFFFFFFFFFFFFFFFFFFFFFFFFFFFFFFFFFFF AND PUSH20 0xFFFFFFFFFFFFFFFFFFFFFFFFFFFFFFFFFFFFFFFF AND DUP2 MSTORE PUSH1 0x20 ADD SWAP1 DUP2 MSTORE PUSH1 0x20 ADD PUSH1 0x0 KECCAK256 PUSH1 0x8 ADD PUSH1 0x8 PUSH1 0x0 DUP7 PUSH20 0xFFFFFFFFFFFFFFFFFFFFFFFFFFFFFFFFFFFFFFFF AND PUSH20 0xFFFFFFFFFFFFFFFFFFFFFFFFFFFFFFFFFFFFFFFF AND DUP2 MSTORE PUSH1 0x20 ADD SWAP1 DUP2 MSTORE PUSH1 0x20 ADD PUSH1 0x0 KECCAK256 PUSH1 0x0 ADD SLOAD SWAP1 DUP1 PUSH1 0x1 DUP2 SLOAD ADD DUP1 DUP3 SSTORE DUP1 SWAP2 POP POP PUSH1 0x1 SWAP1 SUB SWAP1 PUSH1 0x0 MSTORE PUSH1 0x20 PUSH1 0x0 KECCAK256 ADD PUSH1 0x0 SWAP1 SWAP2 SWAP1 SWAP2 SWAP1 SWAP2 POP SSTORE JUMPDEST DUP3 PUSH1 0x6 PUSH1 0x0 DUP3 DUP3 SLOAD PUSH2 0xF39 SWAP2 SWAP1 PUSH2 0x1865 JUMP JUMPDEST SWAP3 POP POP DUP2 SWAP1 SSTORE POP PUSH1 0x6 SLOAD PUSH1 0x7 PUSH1 0x0 DUP5 DUP2 MSTORE PUSH1 0x20 ADD SWAP1 DUP2 MSTORE PUSH1 0x20 ADD PUSH1 0x0 KECCAK256 DUP2 SWAP1 SSTORE POP DUP2 DUP4 DUP6 PUSH20 0xFFFFFFFFFFFFFFFFFFFFFFFFFFFFFFFFFFFFFFFF AND PUSH32 0xB4CAAF29ADDA3EEFEE3AD552A8E85058589BF834C7466CAE4EE58787F70589ED TIMESTAMP PUSH1 0x40 MLOAD PUSH2 0xFA2 SWAP2 SWAP1 PUSH2 0x1729 JUMP JUMPDEST PUSH1 0x40 MLOAD DUP1 SWAP2 SUB SWAP1 LOG4 POP POP POP POP JUMP JUMPDEST PUSH1 0x0 PUSH2 0xFBA PUSH2 0x1536 JUMP JUMPDEST SWAP1 POP PUSH1 0x0 PUSH1 0x8 PUSH1 0x0 DUP4 PUSH20 0xFFFFFFFFFFFFFFFFFFFFFFFFFFFFFFFFFFFFFFFF AND PUSH20 0xFFFFFFFFFFFFFFFFFFFFFFFFFFFFFFFFFFFFFFFF AND DUP2 MSTORE PUSH1 0x20 ADD SWAP1 DUP2 MSTORE PUSH1 0x20 ADD PUSH1 0x0 KECCAK256 PUSH1 0x3 ADD SLOAD GT PUSH2 0x1041 JUMPI PUSH1 0x40 MLOAD PUSH32 0x8C379A000000000000000000000000000000000000000000000000000000000 DUP2 MSTORE PUSH1 0x4 ADD PUSH2 0x1038 SWAP1 PUSH2 0x1CF9 JUMP JUMPDEST PUSH1 0x40 MLOAD DUP1 SWAP2 SUB SWAP1 REVERT JUMPDEST PUSH1 0x0 PUSH2 0x104C DUP3 PUSH2 0x2BF JUMP JUMPDEST SWAP1 POP PUSH1 0x0 DUP2 SUB PUSH2 0x1091 JUMPI PUSH1 0x40 MLOAD PUSH32 0x8C379A000000000000000000000000000000000000000000000000000000000 DUP2 MSTORE PUSH1 0x4 ADD PUSH2 0x1088 SWAP1 PUSH2 0x1D65 JUMP JUMPDEST PUSH1 0x40 MLOAD DUP1 SWAP2 SUB SWAP1 REVERT JUMPDEST PUSH1 0x0 PUSH2 0x109C DUP4 PUSH2 0x1404 JUMP JUMPDEST SWAP1 POP PUSH1 0x0 PUSH1 0x8 PUSH1 0x0 DUP6 PUSH20 0xFFFFFFFFFFFFFFFFFFFFFFFFFFFFFFFFFFFFFFFF AND PUSH20 0xFFFFFFFFFFFFFFFFFFFFFFFFFFFFFFFFFFFFFFFF AND DUP2 MSTORE PUSH1 0x20 ADD SWAP1 DUP2 MSTORE PUSH1 0x20 ADD PUSH1 0x0 KECCAK256 PUSH1 0x6 ADD SLOAD EQ PUSH2 0x1131 JUMPI PUSH1 0x0 PUSH1 0x8 PUSH1 0x0 DUP6 PUSH20 0xFFFFFFFFFFFFFFFFFFFFFFFFFFFFFFFFFFFFFFFF AND PUSH20 0xFFFFFFFFFFFFFFFFFFFFFFFFFFFFFFFFFFFFFFFF AND DUP2 MSTORE PUSH1 0x20 ADD SWAP1 DUP2 MSTORE PUSH1 0x20 ADD PUSH1 0x0 KECCAK256 PUSH1 0x6 ADD DUP2 SWAP1 SSTORE POP JUMPDEST DUP2 PUSH1 0x8 PUSH1 0x0 DUP6 PUSH20 0xFFFFFFFFFFFFFFFFFFFFFFFFFFFFFFFFFFFFFFFF AND PUSH20 0xFFFFFFFFFFFFFFFFFFFFFFFFFFFFFFFFFFFFFFFF AND DUP2 MSTORE PUSH1 0x20 ADD SWAP1 DUP2 MSTORE PUSH1 0x20 ADD PUSH1 0x0 KECCAK256 PUSH1 0x4 ADD PUSH1 0x0 DUP3 DUP3 SLOAD PUSH2 0x1183 SWAP2 SWAP1 PUSH2 0x1865 JUMP JUMPDEST SWAP3 POP POP DUP2 SWAP1 SSTORE POP DUP1 PUSH1 0x8 PUSH1 0x0 DUP6 PUSH20 0xFFFFFFFFFFFFFFFFFFFFFFFFFFFFFFFFFFFFFFFF AND PUSH20 0xFFFFFFFFFFFFFFFFFFFFFFFFFFFFFFFFFFFFFFFF AND DUP2 MSTORE PUSH1 0x20 ADD SWAP1 DUP2 MSTORE PUSH1 0x20 ADD PUSH1 0x0 KECCAK256 PUSH1 0x5 ADD PUSH1 0x0 DUP3 DUP3 SLOAD PUSH2 0x11DC SWAP2 SWAP1 PUSH2 0x1865 JUMP JUMPDEST SWAP3 POP POP DUP2 SWAP1 SSTORE POP PUSH1 0x1 PUSH1 0x0 SWAP1 SLOAD SWAP1 PUSH2 0x100 EXP SWAP1 DIV PUSH20 0xFFFFFFFFFFFFFFFFFFFFFFFFFFFFFFFFFFFFFFFF AND PUSH20 0xFFFFFFFFFFFFFFFFFFFFFFFFFFFFFFFFFFFFFFFF AND PUSH4 0xA9059CBB DUP5 DUP5 PUSH1 0x40 MLOAD DUP4 PUSH4 0xFFFFFFFF AND PUSH1 0xE0 SHL DUP2 MSTORE PUSH1 0x4 ADD PUSH2 0x1240 SWAP3 SWAP2 SWAP1 PUSH2 0x1A8C JUMP JUMPDEST PUSH1 0x20 PUSH1 0x40 MLOAD DUP1 DUP4 SUB DUP2 PUSH1 0x0 DUP8 GAS CALL ISZERO DUP1 ISZERO PUSH2 0x125F JUMPI RETURNDATASIZE PUSH1 0x0 DUP1 RETURNDATACOPY RETURNDATASIZE PUSH1 0x0 REVERT JUMPDEST POP POP POP POP PUSH1 0x40 MLOAD RETURNDATASIZE PUSH1 0x1F NOT PUSH1 0x1F DUP3 ADD AND DUP3 ADD DUP1 PUSH1 0x40 MSTORE POP DUP2 ADD SWAP1 PUSH2 0x1283 SWAP2 SWAP1 PUSH2 0x1AED JUMP JUMPDEST POP POP POP POP JUMP JUMPDEST PUSH1 0x4 SLOAD DUP2 JUMP JUMPDEST PUSH2 0x1297 PUSH2 0x153E JUMP JUMPDEST PUSH2 0x12A1 PUSH1 0x0 PUSH2 0x15BC JUMP JUMPDEST JUMP JUMPDEST PUSH1 0x3 SLOAD DUP2 JUMP JUMPDEST PUSH2 0x12B1 PUSH2 0x153E JUMP JUMPDEST DUP1 PUSH1 0x3 DUP2 SWAP1 SSTORE POP PUSH1 0x1E PUSH1 0x5 SLOAD PUSH2 0x12C7 SWAP2 SWAP1 PUSH2 0x1939 JUMP JUMPDEST PUSH1 0x3 SLOAD PUSH2 0x12D4 SWAP2 SWAP1 PUSH2 0x1865 JUMP JUMPDEST PUSH1 0x4 DUP2 SWAP1 SSTORE POP POP JUMP JUMPDEST PUSH1 0x6 SLOAD DUP2 JUMP JUMPDEST PUSH1 0x0 DUP1 PUSH1 0x0 SWAP1 SLOAD SWAP1 PUSH2 0x100 EXP SWAP1 DIV PUSH20 0xFFFFFFFFFFFFFFFFFFFFFFFFFFFFFFFFFFFFFFFF AND SWAP1 POP SWAP1 JUMP JUMPDEST PUSH1 0x8 PUSH1 0x20 MSTORE DUP1 PUSH1 0x0 MSTORE PUSH1 0x40 PUSH1 0x0 KECCAK256 PUSH1 0x0 SWAP2 POP SWAP1 POP DUP1 PUSH1 0x0 ADD SLOAD SWAP1 DUP1 PUSH1 0x1 ADD SLOAD SWAP1 DUP1 PUSH1 0x2 ADD SLOAD SWAP1 DUP1 PUSH1 0x3 ADD SLOAD SWAP1 DUP1 PUSH1 0x4 ADD SLOAD SWAP1 DUP1 PUSH1 0x5 ADD SLOAD SWAP1 DUP1 PUSH1 0x6 ADD SLOAD SWAP1 POP DUP8 JUMP JUMPDEST PUSH1 0x0 DUP1 PUSH1 0x1 PUSH1 0x5 SLOAD PUSH1 0x3 SLOAD TIMESTAMP PUSH2 0x1364 SWAP2 SWAP1 PUSH2 0x1A58 JUMP JUMPDEST PUSH2 0x136E SWAP2 SWAP1 PUSH2 0x19AA JUMP JUMPDEST PUSH2 0x1378 SWAP2 SWAP1 PUSH2 0x1865 JUMP JUMPDEST SWAP1 POP DUP1 SWAP2 POP POP SWAP1 JUMP JUMPDEST PUSH2 0x1389 PUSH2 0x153E JUMP JUMPDEST PUSH1 0x0 PUSH20 0xFFFFFFFFFFFFFFFFFFFFFFFFFFFFFFFFFFFFFFFF AND DUP2 PUSH20 0xFFFFFFFFFFFFFFFFFFFFFFFFFFFFFFFFFFFFFFFF AND SUB PUSH2 0x13F8 JUMPI PUSH1 0x40 MLOAD PUSH32 0x8C379A000000000000000000000000000000000000000000000000000000000 DUP2 MSTORE PUSH1 0x4 ADD PUSH2 0x13EF SWAP1 PUSH2 0x1DF7 JUMP JUMPDEST PUSH1 0x40 MLOAD DUP1 SWAP2 SUB SWAP1 REVERT JUMPDEST PUSH2 0x1401 DUP2 PUSH2 0x15BC JUMP JUMPDEST POP JUMP JUMPDEST PUSH1 0x0 DUP1 PUSH1 0x5 SLOAD PUSH1 0x4 SLOAD PUSH2 0x1417 SWAP2 SWAP1 PUSH2 0x1865 JUMP JUMPDEST TIMESTAMP GT PUSH2 0x1423 JUMPI TIMESTAMP PUSH2 0x1434 JUMP JUMPDEST PUSH1 0x5 SLOAD PUSH1 0x4 SLOAD PUSH2 0x1433 SWAP2 SWAP1 PUSH2 0x1865 JUMP JUMPDEST JUMPDEST SWAP1 POP PUSH1 0x0 DUP1 PUSH1 0x8 PUSH1 0x0 DUP7 PUSH20 0xFFFFFFFFFFFFFFFFFFFFFFFFFFFFFFFFFFFFFFFF AND PUSH20 0xFFFFFFFFFFFFFFFFFFFFFFFFFFFFFFFFFFFFFFFF AND DUP2 MSTORE PUSH1 0x20 ADD SWAP1 DUP2 MSTORE PUSH1 0x20 ADD PUSH1 0x0 KECCAK256 PUSH1 0x1 ADD SLOAD EQ PUSH2 0x152C JUMPI PUSH1 0x8 PUSH1 0x0 DUP6 PUSH20 0xFFFFFFFFFFFFFFFFFFFFFFFFFFFFFFFFFFFFFFFF AND PUSH20 0xFFFFFFFFFFFFFFFFFFFFFFFFFFFFFFFFFFFFFFFF AND DUP2 MSTORE PUSH1 0x20 ADD SWAP1 DUP2 MSTORE PUSH1 0x20 ADD PUSH1 0x0 KECCAK256 PUSH1 0x5 ADD SLOAD PUSH1 0x5 SLOAD PUSH1 0x8 PUSH1 0x0 DUP8 PUSH20 0xFFFFFFFFFFFFFFFFFFFFFFFFFFFFFFFFFFFFFFFF AND PUSH20 0xFFFFFFFFFFFFFFFFFFFFFFFFFFFFFFFFFFFFFFFF AND DUP2 MSTORE PUSH1 0x20 ADD SWAP1 DUP2 MSTORE PUSH1 0x20 ADD PUSH1 0x0 KECCAK256 PUSH1 0x1 ADD SLOAD DUP5 PUSH2 0x1515 SWAP2 SWAP1 PUSH2 0x1A58 JUMP JUMPDEST PUSH2 0x151F SWAP2 SWAP1 PUSH2 0x19AA JUMP JUMPDEST PUSH2 0x1529 SWAP2 SWAP1 PUSH2 0x1A58 JUMP JUMPDEST SWAP1 POP JUMPDEST DUP1 SWAP3 POP POP POP SWAP2 SWAP1 POP JUMP JUMPDEST PUSH1 0x0 CALLER SWAP1 POP SWAP1 JUMP JUMPDEST PUSH2 0x1546 PUSH2 0x1536 JUMP JUMPDEST PUSH20 0xFFFFFFFFFFFFFFFFFFFFFFFFFFFFFFFFFFFFFFFF AND PUSH2 0x1564 PUSH2 0x12E3 JUMP JUMPDEST PUSH20 0xFFFFFFFFFFFFFFFFFFFFFFFFFFFFFFFFFFFFFFFF AND EQ PUSH2 0x15BA JUMPI PUSH1 0x40 MLOAD PUSH32 0x8C379A000000000000000000000000000000000000000000000000000000000 DUP2 MSTORE PUSH1 0x4 ADD PUSH2 0x15B1 SWAP1 PUSH2 0x1E63 JUMP JUMPDEST PUSH1 0x40 MLOAD DUP1 SWAP2 SUB SWAP1 REVERT JUMPDEST JUMP JUMPDEST PUSH1 0x0 DUP1 PUSH1 0x0 SWAP1 SLOAD SWAP1 PUSH2 0x100 EXP SWAP1 DIV PUSH20 0xFFFFFFFFFFFFFFFFFFFFFFFFFFFFFFFFFFFFFFFF AND SWAP1 POP DUP2 PUSH1 0x0 DUP1 PUSH2 0x100 EXP DUP2 SLOAD DUP2 PUSH20 0xFFFFFFFFFFFFFFFFFFFFFFFFFFFFFFFFFFFFFFFF MUL NOT AND SWAP1 DUP4 PUSH20 0xFFFFFFFFFFFFFFFFFFFFFFFFFFFFFFFFFFFFFFFF AND MUL OR SWAP1 SSTORE POP DUP2 PUSH20 0xFFFFFFFFFFFFFFFFFFFFFFFFFFFFFFFFFFFFFFFF AND DUP2 PUSH20 0xFFFFFFFFFFFFFFFFFFFFFFFFFFFFFFFFFFFFFFFF AND PUSH32 0x8BE0079C531659141344CD1FD0A4F28419497F9722A3DAAFE3B4186F6B6457E0 PUSH1 0x40 MLOAD PUSH1 0x40 MLOAD DUP1 SWAP2 SUB SWAP1 LOG3 POP POP JUMP JUMPDEST PUSH1 0x0 DUP1 REVERT JUMPDEST PUSH1 0x0 PUSH20 0xFFFFFFFFFFFFFFFFFFFFFFFFFFFFFFFFFFFFFFFF DUP3 AND SWAP1 POP SWAP2 SWAP1 POP JUMP JUMPDEST PUSH1 0x0 PUSH2 0x16B0 DUP3 PUSH2 0x1685 JUMP JUMPDEST SWAP1 POP SWAP2 SWAP1 POP JUMP JUMPDEST PUSH2 0x16C0 DUP2 PUSH2 0x16A5 JUMP JUMPDEST DUP2 EQ PUSH2 0x16CB JUMPI PUSH1 0x0 DUP1 REVERT JUMPDEST POP JUMP JUMPDEST PUSH1 0x0 DUP2 CALLDATALOAD SWAP1 POP PUSH2 0x16DD DUP2 PUSH2 0x16B7 JUMP JUMPDEST SWAP3 SWAP2 POP POP JUMP JUMPDEST PUSH1 0x0 PUSH1 0x20 DUP3 DUP5 SUB SLT ISZERO PUSH2 0x16F9 JUMPI PUSH2 0x16F8 PUSH2 0x1680 JUMP JUMPDEST JUMPDEST PUSH1 0x0 PUSH2 0x1707 DUP5 DUP3 DUP6 ADD PUSH2 0x16CE JUMP JUMPDEST SWAP2 POP POP SWAP3 SWAP2 POP POP JUMP JUMPDEST PUSH1 0x0 DUP2 SWAP1 POP SWAP2 SWAP1 POP JUMP JUMPDEST PUSH2 0x1723 DUP2 PUSH2 0x1710 JUMP JUMPDEST DUP3 MSTORE POP POP JUMP JUMPDEST PUSH1 0x0 PUSH1 0x20 DUP3 ADD SWAP1 POP PUSH2 0x173E PUSH1 0x0 DUP4 ADD DUP5 PUSH2 0x171A JUMP JUMPDEST SWAP3 SWAP2 POP POP JUMP JUMPDEST PUSH2 0x174D DUP2 PUSH2 0x1710 JUMP JUMPDEST DUP2 EQ PUSH2 0x1758 JUMPI PUSH1 0x0 DUP1 REVERT JUMPDEST POP JUMP JUMPDEST PUSH1 0x0 DUP2 CALLDATALOAD SWAP1 POP PUSH2 0x176A DUP2 PUSH2 0x1744 JUMP JUMPDEST SWAP3 SWAP2 POP POP JUMP JUMPDEST PUSH1 0x0 PUSH1 0x20 DUP3 DUP5 SUB SLT ISZERO PUSH2 0x1786 JUMPI PUSH2 0x1785 PUSH2 0x1680 JUMP JUMPDEST JUMPDEST PUSH1 0x0 PUSH2 0x1794 DUP5 DUP3 DUP6 ADD PUSH2 0x175B JUMP JUMPDEST SWAP2 POP POP SWAP3 SWAP2 POP POP JUMP JUMPDEST PUSH2 0x17A6 DUP2 PUSH2 0x16A5 JUMP JUMPDEST DUP3 MSTORE POP POP JUMP JUMPDEST PUSH1 0x0 PUSH1 0x20 DUP3 ADD SWAP1 POP PUSH2 0x17C1 PUSH1 0x0 DUP4 ADD DUP5 PUSH2 0x179D JUMP JUMPDEST SWAP3 SWAP2 POP POP JUMP JUMPDEST PUSH1 0x0 PUSH1 0xE0 DUP3 ADD SWAP1 POP PUSH2 0x17DC PUSH1 0x0 DUP4 ADD DUP11 PUSH2 0x171A JUMP JUMPDEST PUSH2 0x17E9 PUSH1 0x20 DUP4 ADD DUP10 PUSH2 0x171A JUMP JUMPDEST PUSH2 0x17F6 PUSH1 0x40 DUP4 ADD DUP9 PUSH2 0x171A JUMP JUMPDEST PUSH2 0x1803 PUSH1 0x60 DUP4 ADD DUP8 PUSH2 0x171A JUMP JUMPDEST PUSH2 0x1810 PUSH1 0x80 DUP4 ADD DUP7 PUSH2 0x171A JUMP JUMPDEST PUSH2 0x181D PUSH1 0xA0 DUP4 ADD DUP6 PUSH2 0x171A JUMP JUMPDEST PUSH2 0x182A PUSH1 0xC0 DUP4 ADD DUP5 PUSH2 0x171A JUMP JUMPDEST SWAP9 SWAP8 POP POP POP POP POP POP POP POP JUMP JUMPDEST PUSH32 0x4E487B7100000000000000000000000000000000000000000000000000000000 PUSH1 0x0 MSTORE PUSH1 0x11 PUSH1 0x4 MSTORE PUSH1 0x24 PUSH1 0x0 REVERT JUMPDEST PUSH1 0x0 PUSH2 0x1870 DUP3 PUSH2 0x1710 JUMP JUMPDEST SWAP2 POP PUSH2 0x187B DUP4 PUSH2 0x1710 JUMP JUMPDEST SWAP3 POP DUP3 DUP3 ADD SWAP1 POP DUP1 DUP3 GT ISZERO PUSH2 0x1893 JUMPI PUSH2 0x1892 PUSH2 0x1836 JUMP JUMPDEST JUMPDEST SWAP3 SWAP2 POP POP JUMP JUMPDEST PUSH32 0x4E487B7100000000000000000000000000000000000000000000000000000000 PUSH1 0x0 MSTORE PUSH1 0x32 PUSH1 0x4 MSTORE PUSH1 0x24 PUSH1 0x0 REVERT JUMPDEST PUSH1 0x0 PUSH2 0x18D3 DUP3 PUSH2 0x1710 JUMP JUMPDEST SWAP2 POP PUSH32 0xFFFFFFFFFFFFFFFFFFFFFFFFFFFFFFFFFFFFFFFFFFFFFFFFFFFFFFFFFFFFFFFF DUP3 SUB PUSH2 0x1905 JUMPI PUSH2 0x1904 PUSH2 0x1836 JUMP JUMPDEST JUMPDEST PUSH1 0x1 DUP3 ADD SWAP1 POP SWAP2 SWAP1 POP JUMP JUMPDEST PUSH1 0x0 PUSH2 0x191B DUP3 PUSH2 0x1710 JUMP JUMPDEST SWAP2 POP PUSH1 0x0 DUP3 SUB PUSH2 0x192E JUMPI PUSH2 0x192D PUSH2 0x1836 JUMP JUMPDEST JUMPDEST PUSH1 0x1 DUP3 SUB SWAP1 POP SWAP2 SWAP1 POP JUMP JUMPDEST PUSH1 0x0 PUSH2 0x1944 DUP3 PUSH2 0x1710 JUMP JUMPDEST SWAP2 POP PUSH2 0x194F DUP4 PUSH2 0x1710 JUMP JUMPDEST SWAP3 POP DUP3 DUP3 MUL PUSH2 0x195D DUP2 PUSH2 0x1710 JUMP JUMPDEST SWAP2 POP DUP3 DUP3 DIV DUP5 EQ DUP4 ISZERO OR PUSH2 0x1974 JUMPI PUSH2 0x1973 PUSH2 0x1836 JUMP JUMPDEST JUMPDEST POP SWAP3 SWAP2 POP POP JUMP JUMPDEST PUSH32 0x4E487B7100000000000000000000000000000000000000000000000000000000 PUSH1 0x0 MSTORE PUSH1 0x12 PUSH1 0x4 MSTORE PUSH1 0x24 PUSH1 0x0 REVERT JUMPDEST PUSH1 0x0 PUSH2 0x19B5 DUP3 PUSH2 0x1710 JUMP JUMPDEST SWAP2 POP PUSH2 0x19C0 DUP4 PUSH2 0x1710 JUMP JUMPDEST SWAP3 POP DUP3 PUSH2 0x19D0 JUMPI PUSH2 0x19CF PUSH2 0x197B JUMP JUMPDEST JUMPDEST DUP3 DUP3 DIV SWAP1 POP SWAP3 SWAP2 POP POP JUMP JUMPDEST PUSH1 0x0 DUP3 DUP3 MSTORE PUSH1 0x20 DUP3 ADD SWAP1 POP SWAP3 SWAP2 POP POP JUMP JUMPDEST PUSH32 0x596F7520646F206E6F742068617665207374616B656420746F6B656E73000000 PUSH1 0x0 DUP3 ADD MSTORE POP JUMP JUMPDEST PUSH1 0x0 PUSH2 0x1A22 PUSH1 0x1D DUP4 PUSH2 0x19DB JUMP JUMPDEST SWAP2 POP PUSH2 0x1A2D DUP3 PUSH2 0x19EC JUMP JUMPDEST PUSH1 0x20 DUP3 ADD SWAP1 POP SWAP2 SWAP1 POP JUMP JUMPDEST PUSH1 0x0 PUSH1 0x20 DUP3 ADD SWAP1 POP DUP2 DUP2 SUB PUSH1 0x0 DUP4 ADD MSTORE PUSH2 0x1A51 DUP2 PUSH2 0x1A15 JUMP JUMPDEST SWAP1 POP SWAP2 SWAP1 POP JUMP JUMPDEST PUSH1 0x0 PUSH2 0x1A63 DUP3 PUSH2 0x1710 JUMP JUMPDEST SWAP2 POP PUSH2 0x1A6E DUP4 PUSH2 0x1710 JUMP JUMPDEST SWAP3 POP DUP3 DUP3 SUB SWAP1 POP DUP2 DUP2 GT ISZERO PUSH2 0x1A86 JUMPI PUSH2 0x1A85 PUSH2 0x1836 JUMP JUMPDEST JUMPDEST SWAP3 SWAP2 POP POP JUMP JUMPDEST PUSH1 0x0 PUSH1 0x40 DUP3 ADD SWAP1 POP PUSH2 0x1AA1 PUSH1 0x0 DUP4 ADD DUP6 PUSH2 0x179D JUMP JUMPDEST PUSH2 0x1AAE PUSH1 0x20 DUP4 ADD DUP5 PUSH2 0x171A JUMP JUMPDEST SWAP4 SWAP3 POP POP POP JUMP JUMPDEST PUSH1 0x0 DUP2 ISZERO ISZERO SWAP1 POP SWAP2 SWAP1 POP JUMP JUMPDEST PUSH2 0x1ACA DUP2 PUSH2 0x1AB5 JUMP JUMPDEST DUP2 EQ PUSH2 0x1AD5 JUMPI PUSH1 0x0 DUP1 REVERT JUMPDEST POP JUMP JUMPDEST PUSH1 0x0 DUP2 MLOAD SWAP1 POP PUSH2 0x1AE7 DUP2 PUSH2 0x1AC1 JUMP JUMPDEST SWAP3 SWAP2 POP POP JUMP JUMPDEST PUSH1 0x0 PUSH1 0x20 DUP3 DUP5 SUB SLT ISZERO PUSH2 0x1B03 JUMPI PUSH2 0x1B02 PUSH2 0x1680 JUMP JUMPDEST JUMPDEST PUSH1 0x0 PUSH2 0x1B11 DUP5 DUP3 DUP6 ADD PUSH2 0x1AD8 JUMP JUMPDEST SWAP2 POP POP SWAP3 SWAP2 POP POP JUMP JUMPDEST PUSH1 0x0 PUSH1 0x40 DUP3 ADD SWAP1 POP PUSH2 0x1B2F PUSH1 0x0 DUP4 ADD DUP6 PUSH2 0x171A JUMP JUMPDEST PUSH2 0x1B3C PUSH1 0x20 DUP4 ADD DUP5 PUSH2 0x171A JUMP JUMPDEST SWAP4 SWAP3 POP POP POP JUMP JUMPDEST PUSH32 0x5374616B696E6720706572696F64206973206E6F742073746172746564000000 PUSH1 0x0 DUP3 ADD MSTORE POP JUMP JUMPDEST PUSH1 0x0 PUSH2 0x1B79 PUSH1 0x1D DUP4 PUSH2 0x19DB JUMP JUMPDEST SWAP2 POP PUSH2 0x1B84 DUP3 PUSH2 0x1B43 JUMP JUMPDEST PUSH1 0x20 DUP3 ADD SWAP1 POP SWAP2 SWAP1 POP JUMP JUMPDEST PUSH1 0x0 PUSH1 0x20 DUP3 ADD SWAP1 POP DUP2 DUP2 SUB PUSH1 0x0 DUP4 ADD MSTORE PUSH2 0x1BA8 DUP2 PUSH2 0x1B6C JUMP JUMPDEST SWAP1 POP SWAP2 SWAP1 POP JUMP JUMPDEST PUSH32 0x5374616B696E6720706572696F6420697320656E646564000000000000000000 PUSH1 0x0 DUP3 ADD MSTORE POP JUMP JUMPDEST PUSH1 0x0 PUSH2 0x1BE5 PUSH1 0x17 DUP4 PUSH2 0x19DB JUMP JUMPDEST SWAP2 POP PUSH2 0x1BF0 DUP3 PUSH2 0x1BAF JUMP JUMPDEST PUSH1 0x20 DUP3 ADD SWAP1 POP SWAP2 SWAP1 POP JUMP JUMPDEST PUSH1 0x0 PUSH1 0x20 DUP3 ADD SWAP1 POP DUP2 DUP2 SUB PUSH1 0x0 DUP4 ADD MSTORE PUSH2 0x1C14 DUP2 PUSH2 0x1BD8 JUMP JUMPDEST SWAP1 POP SWAP2 SWAP1 POP JUMP JUMPDEST PUSH32 0x54686520627265616B206265747765656E20746865207374616B65732073686F PUSH1 0x0 DUP3 ADD MSTORE PUSH32 0x756C642062652033206D696E7574657300000000000000000000000000000000 PUSH1 0x20 DUP3 ADD MSTORE POP JUMP JUMPDEST PUSH1 0x0 PUSH2 0x1C77 PUSH1 0x30 DUP4 PUSH2 0x19DB JUMP JUMPDEST SWAP2 POP PUSH2 0x1C82 DUP3 PUSH2 0x1C1B JUMP JUMPDEST PUSH1 0x40 DUP3 ADD SWAP1 POP SWAP2 SWAP1 POP JUMP JUMPDEST PUSH1 0x0 PUSH1 0x20 DUP3 ADD SWAP1 POP DUP2 DUP2 SUB PUSH1 0x0 DUP4 ADD MSTORE PUSH2 0x1CA6 DUP2 PUSH2 0x1C6A JUMP JUMPDEST SWAP1 POP SWAP2 SWAP1 POP JUMP JUMPDEST PUSH32 0x596F75277665206E65766572206861642061207374616B650000000000000000 PUSH1 0x0 DUP3 ADD MSTORE POP JUMP JUMPDEST PUSH1 0x0 PUSH2 0x1CE3 PUSH1 0x18 DUP4 PUSH2 0x19DB JUMP JUMPDEST SWAP2 POP PUSH2 0x1CEE DUP3 PUSH2 0x1CAD JUMP JUMPDEST PUSH1 0x20 DUP3 ADD SWAP1 POP SWAP2 SWAP1 POP JUMP JUMPDEST PUSH1 0x0 PUSH1 0x20 DUP3 ADD SWAP1 POP DUP2 DUP2 SUB PUSH1 0x0 DUP4 ADD MSTORE PUSH2 0x1D12 DUP2 PUSH2 0x1CD6 JUMP JUMPDEST SWAP1 POP SWAP2 SWAP1 POP JUMP JUMPDEST PUSH32 0x596F7520646F6E2774206861766520617661696C61626C652072657761726400 PUSH1 0x0 DUP3 ADD MSTORE POP JUMP JUMPDEST PUSH1 0x0 PUSH2 0x1D4F PUSH1 0x1F DUP4 PUSH2 0x19DB JUMP JUMPDEST SWAP2 POP PUSH2 0x1D5A DUP3 PUSH2 0x1D19 JUMP JUMPDEST PUSH1 0x20 DUP3 ADD SWAP1 POP SWAP2 SWAP1 POP JUMP JUMPDEST PUSH1 0x0 PUSH1 0x20 DUP3 ADD SWAP1 POP DUP2 DUP2 SUB PUSH1 0x0 DUP4 ADD MSTORE PUSH2 0x1D7E DUP2 PUSH2 0x1D42 JUMP JUMPDEST SWAP1 POP SWAP2 SWAP1 POP JUMP JUMPDEST PUSH32 0x4F776E61626C653A206E6577206F776E657220697320746865207A65726F2061 PUSH1 0x0 DUP3 ADD MSTORE PUSH32 0x6464726573730000000000000000000000000000000000000000000000000000 PUSH1 0x20 DUP3 ADD MSTORE POP JUMP JUMPDEST PUSH1 0x0 PUSH2 0x1DE1 PUSH1 0x26 DUP4 PUSH2 0x19DB JUMP JUMPDEST SWAP2 POP PUSH2 0x1DEC DUP3 PUSH2 0x1D85 JUMP JUMPDEST PUSH1 0x40 DUP3 ADD SWAP1 POP SWAP2 SWAP1 POP JUMP JUMPDEST PUSH1 0x0 PUSH1 0x20 DUP3 ADD SWAP1 POP DUP2 DUP2 SUB PUSH1 0x0 DUP4 ADD MSTORE PUSH2 0x1E10 DUP2 PUSH2 0x1DD4 JUMP JUMPDEST SWAP1 POP SWAP2 SWAP1 POP JUMP JUMPDEST PUSH32 0x4F776E61626C653A2063616C6C6572206973206E6F7420746865206F776E6572 PUSH1 0x0 DUP3 ADD MSTORE POP JUMP JUMPDEST PUSH1 0x0 PUSH2 0x1E4D PUSH1 0x20 DUP4 PUSH2 0x19DB JUMP JUMPDEST SWAP2 POP PUSH2 0x1E58 DUP3 PUSH2 0x1E17 JUMP JUMPDEST PUSH1 0x20 DUP3 ADD SWAP1 POP SWAP2 SWAP1 POP JUMP JUMPDEST PUSH1 0x0 PUSH1 0x20 DUP3 ADD SWAP1 POP DUP2 DUP2 SUB PUSH1 0x0 DUP4 ADD MSTORE PUSH2 0x1E7C DUP2 PUSH2 0x1E40 JUMP JUMPDEST SWAP1 POP SWAP2 SWAP1 POP JUMP INVALID LOG2 PUSH5 0x6970667358 0x22 SLT KECCAK256 GASLIMIT 0xAF 0xD6 SLT 0x2D DUP12 COINBASE NUMBER 0xC3 DUP16 0xE8 DUP8 0x2B PUSH23 0x65A017E33FE64308792DE631C877597B787964736F6C63 NUMBER STOP ADDMOD GT STOP CALLER "},"methodIdentifiers":{"availableReward(address)":"066fd899","finishStakeTime()":"5610e542","getDayNumber()":"d72605f5","getReward()":"3d18b912","owner()":"8da5cb5b","renounceOwnership()":"715018a6","setStartStakeTime(uint256)":"77999ffb","stake()":"3a4b66f1","startStakeTime()":"71aec515","totalStaked()":"817b1cd2","transferOwnership(address)":"f2fde38b","unstake()":"2def6620","users(address)":"a87430ba"}}}}}