{
  "_format": "hh-sol-artifact-1",
  "contractName": "TokenTTT",
  "sourceName": "contracts/TokenTTT.sol",
  "abi": [
    {
      "inputs": [],
      "stateMutability": "nonpayable",
      "type": "constructor"
    },
    {
      "anonymous": false,
      "inputs": [
        {
          "indexed": true,
          "internalType": "address",
          "name": "owner",
          "type": "address"
        },
        {
          "indexed": true,
          "internalType": "address",
          "name": "spender",
          "type": "address"
        },
        {
          "indexed": false,
          "internalType": "uint256",
          "name": "value",
          "type": "uint256"
        }
      ],
      "name": "Approval",
      "type": "event"
    },
    {
      "anonymous": false,
      "inputs": [
        {
          "indexed": true,
          "internalType": "address",
          "name": "previousOwner",
          "type": "address"
        },
        {
          "indexed": true,
          "internalType": "address",
          "name": "newOwner",
          "type": "address"
        }
      ],
      "name": "OwnershipTransferred",
      "type": "event"
    },
    {
      "anonymous": false,
      "inputs": [
        {
          "indexed": true,
          "internalType": "address",
          "name": "from",
          "type": "address"
        },
        {
          "indexed": true,
          "internalType": "address",
          "name": "to",
          "type": "address"
        },
        {
          "indexed": false,
          "internalType": "uint256",
          "name": "value",
          "type": "uint256"
        }
      ],
      "name": "Transfer",
      "type": "event"
    },
    {
      "inputs": [],
      "name": "_maxTokens",
      "outputs": [
        {
          "internalType": "uint256",
          "name": "",
          "type": "uint256"
        }
      ],
      "stateMutability": "view",
      "type": "function"
    },
    {
      "inputs": [
        {
          "internalType": "address",
          "name": "owner",
          "type": "address"
        },
        {
          "internalType": "address",
          "name": "spender",
          "type": "address"
        }
      ],
      "name": "allowance",
      "outputs": [
        {
          "internalType": "uint256",
          "name": "",
          "type": "uint256"
        }
      ],
      "stateMutability": "view",
      "type": "function"
    },
    {
      "inputs": [
        {
          "internalType": "address",
          "name": "spender",
          "type": "address"
        },
        {
          "internalType": "uint256",
          "name": "amount",
          "type": "uint256"
        }
      ],
      "name": "approve",
      "outputs": [
        {
          "internalType": "bool",
          "name": "",
          "type": "bool"
        }
      ],
      "stateMutability": "nonpayable",
      "type": "function"
    },
    {
      "inputs": [
        {
          "internalType": "address",
          "name": "account",
          "type": "address"
        }
      ],
      "name": "balanceOf",
      "outputs": [
        {
          "internalType": "uint256",
          "name": "",
          "type": "uint256"
        }
      ],
      "stateMutability": "view",
      "type": "function"
    },
    {
      "inputs": [
        {
          "internalType": "uint256",
          "name": "amount",
          "type": "uint256"
        },
        {
          "internalType": "address",
          "name": "account",
          "type": "address"
        }
      ],
      "name": "burn",
      "outputs": [],
      "stateMutability": "nonpayable",
      "type": "function"
    },
    {
      "inputs": [],
      "name": "decimals",
      "outputs": [
        {
          "internalType": "uint8",
          "name": "",
          "type": "uint8"
        }
      ],
      "stateMutability": "view",
      "type": "function"
    },
    {
      "inputs": [
        {
          "internalType": "address",
          "name": "spender",
          "type": "address"
        },
        {
          "internalType": "uint256",
          "name": "subtractedValue",
          "type": "uint256"
        }
      ],
      "name": "decreaseAllowance",
      "outputs": [
        {
          "internalType": "bool",
          "name": "",
          "type": "bool"
        }
      ],
      "stateMutability": "nonpayable",
      "type": "function"
    },
    {
      "inputs": [
        {
          "internalType": "address",
          "name": "spender",
          "type": "address"
        },
        {
          "internalType": "uint256",
          "name": "addedValue",
          "type": "uint256"
        }
      ],
      "name": "increaseAllowance",
      "outputs": [
        {
          "internalType": "bool",
          "name": "",
          "type": "bool"
        }
      ],
      "stateMutability": "nonpayable",
      "type": "function"
    },
    {
      "inputs": [
        {
          "internalType": "uint256",
          "name": "amount",
          "type": "uint256"
        },
        {
          "internalType": "address",
          "name": "reciever",
          "type": "address"
        }
      ],
      "name": "mint",
      "outputs": [],
      "stateMutability": "nonpayable",
      "type": "function"
    },
    {
      "inputs": [],
      "name": "name",
      "outputs": [
        {
          "internalType": "string",
          "name": "",
          "type": "string"
        }
      ],
      "stateMutability": "view",
      "type": "function"
    },
    {
      "inputs": [],
      "name": "owner",
      "outputs": [
        {
          "internalType": "address",
          "name": "",
          "type": "address"
        }
      ],
      "stateMutability": "view",
      "type": "function"
    },
    {
      "inputs": [],
      "name": "renounceOwnership",
      "outputs": [],
      "stateMutability": "nonpayable",
      "type": "function"
    },
    {
      "inputs": [
        {
          "internalType": "uint256",
          "name": "newMax",
          "type": "uint256"
        }
      ],
      "name": "setMaxTokens",
      "outputs": [],
      "stateMutability": "nonpayable",
      "type": "function"
    },
    {
      "inputs": [],
      "name": "symbol",
      "outputs": [
        {
          "internalType": "string",
          "name": "",
          "type": "string"
        }
      ],
      "stateMutability": "view",
      "type": "function"
    },
    {
      "inputs": [],
      "name": "totalSupply",
      "outputs": [
        {
          "internalType": "uint256",
          "name": "",
          "type": "uint256"
        }
      ],
      "stateMutability": "view",
      "type": "function"
    },
    {
      "inputs": [],
      "name": "totalTokens",
      "outputs": [
        {
          "internalType": "uint256",
          "name": "",
          "type": "uint256"
        }
      ],
      "stateMutability": "view",
      "type": "function"
    },
    {
      "inputs": [
        {
          "internalType": "address",
          "name": "to",
          "type": "address"
        },
        {
          "internalType": "uint256",
          "name": "amount",
          "type": "uint256"
        }
      ],
      "name": "transfer",
      "outputs": [
        {
          "internalType": "bool",
          "name": "",
          "type": "bool"
        }
      ],
      "stateMutability": "nonpayable",
      "type": "function"
    },
    {
      "inputs": [
        {
          "internalType": "address",
          "name": "from",
          "type": "address"
        },
        {
          "internalType": "address",
          "name": "to",
          "type": "address"
        },
        {
          "internalType": "uint256",
          "name": "amount",
          "type": "uint256"
        }
      ],
      "name": "transferFrom",
      "outputs": [
        {
          "internalType": "bool",
          "name": "",
          "type": "bool"
        }
      ],
      "stateMutability": "nonpayable",
      "type": "function"
    },
    {
      "inputs": [
        {
          "internalType": "address",
          "name": "newOwner",
          "type": "address"
        }
      ],
      "name": "transferOwnership",
      "outputs": [],
      "stateMutability": "nonpayable",
      "type": "function"
    }
  ],
  "bytecode": "0x60806040523480156200001157600080fd5b50600a805462000021906200033c565b80601f01602080910402602001604051908101604052809291908181526020018280546200004f906200033c565b8015620000a05780601f106200007457610100808354040283529160200191620000a0565b820191906000526020600020905b8154815290600101906020018083116200008257829003601f168201915b505050505060098054620000b4906200033c565b80601f0160208091040260200160405190810160405280929190818152602001828054620000e2906200033c565b8015620001335780601f10620001075761010080835404028352916020019162000133565b820191906000526020600020905b8154815290600101906020018083116200011557829003601f168201915b5050505050816003908162000149919062000587565b5080600490816200015b919062000587565b5050506200017e620001726200023f60201b60201c565b6200024760201b60201c565b6040518060400160405280600981526020017f54545420546f6b656e0000000000000000000000000000000000000000000000815250600a9081620001c4919062000587565b506040518060400160405280600381526020017f5454540000000000000000000000000000000000000000000000000000000000815250600990816200020b919062000587565b506012600860006101000a81548160ff021916908360ff160217905550693f870857a3e0e38000006006819055506200066e565b600033905090565b6000600560009054906101000a900473ffffffffffffffffffffffffffffffffffffffff16905081600560006101000a81548173ffffffffffffffffffffffffffffffffffffffff021916908373ffffffffffffffffffffffffffffffffffffffff1602179055508173ffffffffffffffffffffffffffffffffffffffff168173ffffffffffffffffffffffffffffffffffffffff167f8be0079c531659141344cd1fd0a4f28419497f9722a3daafe3b4186f6b6457e060405160405180910390a35050565b7f4e487b7100000000000000000000000000000000000000000000000000000000600052602260045260246000fd5b600060028204905060018216806200035557607f821691505b6020821081036200036b576200036a6200030d565b5b50919050565b600081519050919050565b7f4e487b7100000000000000000000000000000000000000000000000000000000600052604160045260246000fd5b60008190508160005260206000209050919050565b60006020601f8301049050919050565b600082821b905092915050565b6000600883026200040f7fffffffffffffffffffffffffffffffffffffffffffffffffffffffffffffffff82620003d0565b6200041b8683620003d0565b95508019841693508086168417925050509392505050565b6000819050919050565b6000819050919050565b600062000468620004626200045c8462000433565b6200043d565b62000433565b9050919050565b6000819050919050565b620004848362000447565b6200049c62000493826200046f565b848454620003dd565b825550505050565b600090565b620004b3620004a4565b620004c081848462000479565b505050565b5b81811015620004e857620004dc600082620004a9565b600181019050620004c6565b5050565b601f82111562000537576200050181620003ab565b6200050c84620003c0565b810160208510156200051c578190505b620005346200052b85620003c0565b830182620004c5565b50505b505050565b600082821c905092915050565b60006200055c600019846008026200053c565b1980831691505092915050565b600062000577838362000549565b9150826002028217905092915050565b620005928262000371565b67ffffffffffffffff811115620005ae57620005ad6200037c565b5b620005ba82546200033c565b620005c7828285620004ec565b600060209050601f831160018114620005ff5760008415620005ea578287015190505b620005f6858262000569565b86555062000666565b601f1984166200060f86620003ab565b60005b82811015620006395784890151825560018201915060208501945060208101905062000612565b8683101562000659578489015162000655601f89168262000549565b8355505b6001600288020188555050505b505050505050565b611de6806200067e6000396000f3fe608060405234801561001057600080fd5b50600436106101215760003560e01c8063715018a6116100ad578063a457c2d711610071578063a457c2d7146102fa578063a9059cbb1461032a578063dd62ed3e1461035a578063f2fde38b1461038a578063fcd3533c146103a657610121565b8063715018a61461027a5780637e1c0c09146102845780638da5cb5b146102a257806394bf804d146102c057806395d89b41146102dc57610121565b806323b872dd116100f457806323b872dd146101ae578063313ce567146101de57806339509351146101fc578063487c70fc1461022c57806370a082311461024a57610121565b806306fdde0314610126578063095ea7b31461014457806311e776fe1461017457806318160ddd14610190575b600080fd5b61012e6103c2565b60405161013b9190611292565b60405180910390f35b61015e6004803603810190610159919061134d565b610454565b60405161016b91906113a8565b60405180910390f35b61018e600480360381019061018991906113c3565b610477565b005b6101986104cd565b6040516101a591906113ff565b60405180910390f35b6101c860048036038101906101c3919061141a565b6104d7565b6040516101d591906113a8565b60405180910390f35b6101e6610506565b6040516101f39190611489565b60405180910390f35b6102166004803603810190610211919061134d565b61050f565b60405161022391906113a8565b60405180910390f35b610234610546565b60405161024191906113ff565b60405180910390f35b610264600480360381019061025f91906114a4565b61054c565b60405161027191906113ff565b60405180910390f35b610282610594565b005b61028c6105a8565b60405161029991906113ff565b60405180910390f35b6102aa6105ae565b6040516102b791906114e0565b60405180910390f35b6102da60048036038101906102d591906114fb565b6105d8565b005b6102e4610659565b6040516102f19190611292565b60405180910390f35b610314600480360381019061030f919061134d565b6106eb565b60405161032191906113a8565b60405180910390f35b610344600480360381019061033f919061134d565b610762565b60405161035191906113a8565b60405180910390f35b610374600480360381019061036f919061153b565b610785565b60405161038191906113ff565b60405180910390f35b6103a4600480360381019061039f91906114a4565b61080c565b005b6103c060048036038101906103bb91906114fb565b61088f565b005b6060600380546103d1906115aa565b80601f01602080910402602001604051908101604052809291908181526020018280546103fd906115aa565b801561044a5780601f1061041f5761010080835404028352916020019161044a565b820191906000526020600020905b81548152906001019060200180831161042d57829003601f168201915b5050505050905090565b60008061045f6108be565b905061046c8185856108c6565b600191505092915050565b61047f610a8f565b60075481116104c3576040517f08c379a00000000000000000000000000000000000000000000000000000000081526004016104ba90611627565b60405180910390fd5b8060068190555050565b6000600254905090565b6000806104e26108be565b90506104ef858285610b0d565b6104fa858585610b99565b60019150509392505050565b60006012905090565b60008061051a6108be565b905061053b81858561052c8589610785565b6105369190611676565b6108c6565b600191505092915050565b60065481565b60008060008373ffffffffffffffffffffffffffffffffffffffff1673ffffffffffffffffffffffffffffffffffffffff168152602001908152602001600020549050919050565b61059c610a8f565b6105a66000610e0f565b565b60075481565b6000600560009054906101000a900473ffffffffffffffffffffffffffffffffffffffff16905090565b6105e0610a8f565b600654600754836105f19190611676565b1115610632576040517f08c379a0000000000000000000000000000000000000000000000000000000008152600401610629906116f6565b60405180910390fd5b61063c8183610ed5565b816007600082825461064e9190611676565b925050819055505050565b606060048054610668906115aa565b80601f0160208091040260200160405190810160405280929190818152602001828054610694906115aa565b80156106e15780601f106106b6576101008083540402835291602001916106e1565b820191906000526020600020905b8154815290600101906020018083116106c457829003601f168201915b5050505050905090565b6000806106f66108be565b905060006107048286610785565b905083811015610749576040517f08c379a000000000000000000000000000000000000000000000000000000000815260040161074090611788565b60405180910390fd5b61075682868684036108c6565b60019250505092915050565b60008061076d6108be565b905061077a818585610b99565b600191505092915050565b6000600160008473ffffffffffffffffffffffffffffffffffffffff1673ffffffffffffffffffffffffffffffffffffffff16815260200190815260200160002060008373ffffffffffffffffffffffffffffffffffffffff1673ffffffffffffffffffffffffffffffffffffffff16815260200190815260200160002054905092915050565b610814610a8f565b600073ffffffffffffffffffffffffffffffffffffffff168173ffffffffffffffffffffffffffffffffffffffff1603610883576040517f08c379a000000000000000000000000000000000000000000000000000000000815260040161087a9061181a565b60405180910390fd5b61088c81610e0f565b50565b610897610a8f565b6108a1818361102b565b81600760008282546108b3919061183a565b925050819055505050565b600033905090565b600073ffffffffffffffffffffffffffffffffffffffff168373ffffffffffffffffffffffffffffffffffffffff1603610935576040517f08c379a000000000000000000000000000000000000000000000000000000000815260040161092c906118e0565b60405180910390fd5b600073ffffffffffffffffffffffffffffffffffffffff168273ffffffffffffffffffffffffffffffffffffffff16036109a4576040517f08c379a000000000000000000000000000000000000000000000000000000000815260040161099b90611972565b60405180910390fd5b80600160008573ffffffffffffffffffffffffffffffffffffffff1673ffffffffffffffffffffffffffffffffffffffff16815260200190815260200160002060008473ffffffffffffffffffffffffffffffffffffffff1673ffffffffffffffffffffffffffffffffffffffff168152602001908152602001600020819055508173ffffffffffffffffffffffffffffffffffffffff168373ffffffffffffffffffffffffffffffffffffffff167f8c5be1e5ebec7d5bd14f71427d1e84f3dd0314c0f7b2291e5b200ac8c7c3b92583604051610a8291906113ff565b60405180910390a3505050565b610a976108be565b73ffffffffffffffffffffffffffffffffffffffff16610ab56105ae565b73ffffffffffffffffffffffffffffffffffffffff1614610b0b576040517f08c379a0000000000000000000000000000000000000000000000000000000008152600401610b02906119de565b60405180910390fd5b565b6000610b198484610785565b90507fffffffffffffffffffffffffffffffffffffffffffffffffffffffffffffffff8114610b935781811015610b85576040517f08c379a0000000000000000000000000000000000000000000000000000000008152600401610b7c90611a4a565b60405180910390fd5b610b9284848484036108c6565b5b50505050565b600073ffffffffffffffffffffffffffffffffffffffff168373ffffffffffffffffffffffffffffffffffffffff1603610c08576040517f08c379a0000000000000000000000000000000000000000000000000000000008152600401610bff90611adc565b60405180910390fd5b600073ffffffffffffffffffffffffffffffffffffffff168273ffffffffffffffffffffffffffffffffffffffff1603610c77576040517f08c379a0000000000000000000000000000000000000000000000000000000008152600401610c6e90611b6e565b60405180910390fd5b610c828383836111f8565b60008060008573ffffffffffffffffffffffffffffffffffffffff1673ffffffffffffffffffffffffffffffffffffffff16815260200190815260200160002054905081811015610d08576040517f08c379a0000000000000000000000000000000000000000000000000000000008152600401610cff90611c00565b60405180910390fd5b8181036000808673ffffffffffffffffffffffffffffffffffffffff1673ffffffffffffffffffffffffffffffffffffffff16815260200190815260200160002081905550816000808573ffffffffffffffffffffffffffffffffffffffff1673ffffffffffffffffffffffffffffffffffffffff168152602001908152602001600020600082825401925050819055508273ffffffffffffffffffffffffffffffffffffffff168473ffffffffffffffffffffffffffffffffffffffff167fddf252ad1be2c89b69c2b068fc378daa952ba7f163c4a11628f55a4df523b3ef84604051610df691906113ff565b60405180910390a3610e098484846111fd565b50505050565b6000600560009054906101000a900473ffffffffffffffffffffffffffffffffffffffff16905081600560006101000a81548173ffffffffffffffffffffffffffffffffffffffff021916908373ffffffffffffffffffffffffffffffffffffffff1602179055508173ffffffffffffffffffffffffffffffffffffffff168173ffffffffffffffffffffffffffffffffffffffff167f8be0079c531659141344cd1fd0a4f28419497f9722a3daafe3b4186f6b6457e060405160405180910390a35050565b600073ffffffffffffffffffffffffffffffffffffffff168273ffffffffffffffffffffffffffffffffffffffff1603610f44576040517f08c379a0000000000000000000000000000000000000000000000000000000008152600401610f3b90611c6c565b60405180910390fd5b610f50600083836111f8565b8060026000828254610f629190611676565b92505081905550806000808473ffffffffffffffffffffffffffffffffffffffff1673ffffffffffffffffffffffffffffffffffffffff168152602001908152602001600020600082825401925050819055508173ffffffffffffffffffffffffffffffffffffffff16600073ffffffffffffffffffffffffffffffffffffffff167fddf252ad1be2c89b69c2b068fc378daa952ba7f163c4a11628f55a4df523b3ef8360405161101391906113ff565b60405180910390a3611027600083836111fd565b5050565b600073ffffffffffffffffffffffffffffffffffffffff168273ffffffffffffffffffffffffffffffffffffffff160361109a576040517f08c379a000000000000000000000000000000000000000000000000000000000815260040161109190611cfe565b60405180910390fd5b6110a6826000836111f8565b60008060008473ffffffffffffffffffffffffffffffffffffffff1673ffffffffffffffffffffffffffffffffffffffff1681526020019081526020016000205490508181101561112c576040517f08c379a000000000000000000000000000000000000000000000000000000000815260040161112390611d90565b60405180910390fd5b8181036000808573ffffffffffffffffffffffffffffffffffffffff1673ffffffffffffffffffffffffffffffffffffffff1681526020019081526020016000208190555081600260008282540392505081905550600073ffffffffffffffffffffffffffffffffffffffff168373ffffffffffffffffffffffffffffffffffffffff167fddf252ad1be2c89b69c2b068fc378daa952ba7f163c4a11628f55a4df523b3ef846040516111df91906113ff565b60405180910390a36111f3836000846111fd565b505050565b505050565b505050565b600081519050919050565b600082825260208201905092915050565b60005b8381101561123c578082015181840152602081019050611221565b60008484015250505050565b6000601f19601f8301169050919050565b600061126482611202565b61126e818561120d565b935061127e81856020860161121e565b61128781611248565b840191505092915050565b600060208201905081810360008301526112ac8184611259565b905092915050565b600080fd5b600073ffffffffffffffffffffffffffffffffffffffff82169050919050565b60006112e4826112b9565b9050919050565b6112f4816112d9565b81146112ff57600080fd5b50565b600081359050611311816112eb565b92915050565b6000819050919050565b61132a81611317565b811461133557600080fd5b50565b60008135905061134781611321565b92915050565b60008060408385031215611364576113636112b4565b5b600061137285828601611302565b925050602061138385828601611338565b9150509250929050565b60008115159050919050565b6113a28161138d565b82525050565b60006020820190506113bd6000830184611399565b92915050565b6000602082840312156113d9576113d86112b4565b5b60006113e784828501611338565b91505092915050565b6113f981611317565b82525050565b600060208201905061141460008301846113f0565b92915050565b600080600060608486031215611433576114326112b4565b5b600061144186828701611302565b935050602061145286828701611302565b925050604061146386828701611338565b9150509250925092565b600060ff82169050919050565b6114838161146d565b82525050565b600060208201905061149e600083018461147a565b92915050565b6000602082840312156114ba576114b96112b4565b5b60006114c884828501611302565b91505092915050565b6114da816112d9565b82525050565b60006020820190506114f560008301846114d1565b92915050565b60008060408385031215611512576115116112b4565b5b600061152085828601611338565b925050602061153185828601611302565b9150509250929050565b60008060408385031215611552576115516112b4565b5b600061156085828601611302565b925050602061157185828601611302565b9150509250929050565b7f4e487b7100000000000000000000000000000000000000000000000000000000600052602260045260246000fd5b600060028204905060018216806115c257607f821691505b6020821081036115d5576115d461157b565b5b50919050565b7f596f75206e65656420746f206275726e20736f6d652066697273740000000000600082015250565b6000611611601b8361120d565b915061161c826115db565b602082019050919050565b6000602082019050818103600083015261164081611604565b9050919050565b7f4e487b7100000000000000000000000000000000000000000000000000000000600052601160045260246000fd5b600061168182611317565b915061168c83611317565b92508282019050808211156116a4576116a3611647565b5b92915050565b7f457863656564656420616d6f756e74206f6620746f6b656e7300000000000000600082015250565b60006116e060198361120d565b91506116eb826116aa565b602082019050919050565b6000602082019050818103600083015261170f816116d3565b9050919050565b7f45524332303a2064656372656173656420616c6c6f77616e63652062656c6f7760008201527f207a65726f000000000000000000000000000000000000000000000000000000602082015250565b600061177260258361120d565b915061177d82611716565b604082019050919050565b600060208201905081810360008301526117a181611765565b9050919050565b7f4f776e61626c653a206e6577206f776e657220697320746865207a65726f206160008201527f6464726573730000000000000000000000000000000000000000000000000000602082015250565b600061180460268361120d565b915061180f826117a8565b604082019050919050565b60006020820190508181036000830152611833816117f7565b9050919050565b600061184582611317565b915061185083611317565b925082820390508181111561186857611867611647565b5b92915050565b7f45524332303a20617070726f76652066726f6d20746865207a65726f2061646460008201527f7265737300000000000000000000000000000000000000000000000000000000602082015250565b60006118ca60248361120d565b91506118d58261186e565b604082019050919050565b600060208201905081810360008301526118f9816118bd565b9050919050565b7f45524332303a20617070726f766520746f20746865207a65726f20616464726560008201527f7373000000000000000000000000000000000000000000000000000000000000602082015250565b600061195c60228361120d565b915061196782611900565b604082019050919050565b6000602082019050818103600083015261198b8161194f565b9050919050565b7f4f776e61626c653a2063616c6c6572206973206e6f7420746865206f776e6572600082015250565b60006119c860208361120d565b91506119d382611992565b602082019050919050565b600060208201905081810360008301526119f7816119bb565b9050919050565b7f45524332303a20696e73756666696369656e7420616c6c6f77616e6365000000600082015250565b6000611a34601d8361120d565b9150611a3f826119fe565b602082019050919050565b60006020820190508181036000830152611a6381611a27565b9050919050565b7f45524332303a207472616e736665722066726f6d20746865207a65726f20616460008201527f6472657373000000000000000000000000000000000000000000000000000000602082015250565b6000611ac660258361120d565b9150611ad182611a6a565b604082019050919050565b60006020820190508181036000830152611af581611ab9565b9050919050565b7f45524332303a207472616e7366657220746f20746865207a65726f206164647260008201527f6573730000000000000000000000000000000000000000000000000000000000602082015250565b6000611b5860238361120d565b9150611b6382611afc565b604082019050919050565b60006020820190508181036000830152611b8781611b4b565b9050919050565b7f45524332303a207472616e7366657220616d6f756e742065786365656473206260008201527f616c616e63650000000000000000000000000000000000000000000000000000602082015250565b6000611bea60268361120d565b9150611bf582611b8e565b604082019050919050565b60006020820190508181036000830152611c1981611bdd565b9050919050565b7f45524332303a206d696e7420746f20746865207a65726f206164647265737300600082015250565b6000611c56601f8361120d565b9150611c6182611c20565b602082019050919050565b60006020820190508181036000830152611c8581611c49565b9050919050565b7f45524332303a206275726e2066726f6d20746865207a65726f2061646472657360008201527f7300000000000000000000000000000000000000000000000000000000000000602082015250565b6000611ce860218361120d565b9150611cf382611c8c565b604082019050919050565b60006020820190508181036000830152611d1781611cdb565b9050919050565b7f45524332303a206275726e20616d6f756e7420657863656564732062616c616e60008201527f6365000000000000000000000000000000000000000000000000000000000000602082015250565b6000611d7a60228361120d565b9150611d8582611d1e565b604082019050919050565b60006020820190508181036000830152611da981611d6d565b905091905056fea264697066735822122050221499b4f79322c3e16d88e5e01d98d1471eccba2e621d3c48337807beff2f64736f6c63430008110033",
  "linkReferences": {},
  "deployedLinkReferences": {}
}