{
  "_format": "hh-sol-artifact-1",
  "contractName": "StakingTTT",
  "sourceName": "contracts/StakingTTT.sol",
  "abi": [
    {
      "inputs": [
        {
          "internalType": "address",
          "name": "_tokenTTT",
          "type": "address"
        }
      ],
      "stateMutability": "nonpayable",
      "type": "constructor"
    },
    {
      "anonymous": false,
      "inputs": [
        {
          "indexed": true,
          "internalType": "address",
          "name": "previousOwner",
          "type": "address"
        },
        {
          "indexed": true,
          "internalType": "address",
          "name": "newOwner",
          "type": "address"
        }
      ],
      "name": "OwnershipTransferred",
      "type": "event"
    },
    {
      "anonymous": false,
      "inputs": [
        {
          "indexed": true,
          "internalType": "address",
          "name": "holderAddress",
          "type": "address"
        },
        {
          "indexed": true,
          "internalType": "uint256",
          "name": "amount",
          "type": "uint256"
        }
      ],
      "name": "PromoActivated",
      "type": "event"
    },
    {
      "anonymous": false,
      "inputs": [
        {
          "indexed": true,
          "internalType": "address",
          "name": "userAddress",
          "type": "address"
        },
        {
          "indexed": true,
          "internalType": "uint256",
          "name": "amount",
          "type": "uint256"
        },
        {
          "indexed": true,
          "internalType": "uint256",
          "name": "day",
          "type": "uint256"
        },
        {
          "indexed": false,
          "internalType": "uint256",
          "name": "time",
          "type": "uint256"
        }
      ],
      "name": "Staked",
      "type": "event"
    },
    {
      "anonymous": false,
      "inputs": [
        {
          "indexed": true,
          "internalType": "address",
          "name": "userAddress",
          "type": "address"
        },
        {
          "indexed": true,
          "internalType": "uint256",
          "name": "amount",
          "type": "uint256"
        },
        {
          "indexed": true,
          "internalType": "uint256",
          "name": "day",
          "type": "uint256"
        },
        {
          "indexed": false,
          "internalType": "uint256",
          "name": "rewardAmount",
          "type": "uint256"
        },
        {
          "indexed": false,
          "internalType": "uint256",
          "name": "time",
          "type": "uint256"
        }
      ],
      "name": "Unstaked",
      "type": "event"
    },
    {
      "inputs": [
        {
          "internalType": "address",
          "name": "userAddress",
          "type": "address"
        }
      ],
      "name": "availableReward",
      "outputs": [
        {
          "internalType": "uint256",
          "name": "amount",
          "type": "uint256"
        }
      ],
      "stateMutability": "view",
      "type": "function"
    },
    {
      "inputs": [],
      "name": "finishStakeTime",
      "outputs": [
        {
          "internalType": "uint256",
          "name": "",
          "type": "uint256"
        }
      ],
      "stateMutability": "view",
      "type": "function"
    },
    {
      "inputs": [],
      "name": "getDayNumber",
      "outputs": [
        {
          "internalType": "uint256",
          "name": "",
          "type": "uint256"
        }
      ],
      "stateMutability": "view",
      "type": "function"
    },
    {
      "inputs": [],
      "name": "getReward",
      "outputs": [],
      "stateMutability": "nonpayable",
      "type": "function"
    },
    {
      "inputs": [],
      "name": "owner",
      "outputs": [
        {
          "internalType": "address",
          "name": "",
          "type": "address"
        }
      ],
      "stateMutability": "view",
      "type": "function"
    },
    {
      "inputs": [],
      "name": "renounceOwnership",
      "outputs": [],
      "stateMutability": "nonpayable",
      "type": "function"
    },
    {
      "inputs": [
        {
          "internalType": "uint256",
          "name": "_startStakeTime",
          "type": "uint256"
        }
      ],
      "name": "setStartStakeTime",
      "outputs": [],
      "stateMutability": "nonpayable",
      "type": "function"
    },
    {
      "inputs": [],
      "name": "stake",
      "outputs": [],
      "stateMutability": "payable",
      "type": "function"
    },
    {
      "inputs": [],
      "name": "startStakeTime",
      "outputs": [
        {
          "internalType": "uint256",
          "name": "",
          "type": "uint256"
        }
      ],
      "stateMutability": "view",
      "type": "function"
    },
    {
      "inputs": [],
      "name": "totalStaked",
      "outputs": [
        {
          "internalType": "uint256",
          "name": "",
          "type": "uint256"
        }
      ],
      "stateMutability": "view",
      "type": "function"
    },
    {
      "inputs": [
        {
          "internalType": "address",
          "name": "newOwner",
          "type": "address"
        }
      ],
      "name": "transferOwnership",
      "outputs": [],
      "stateMutability": "nonpayable",
      "type": "function"
    },
    {
      "inputs": [],
      "name": "unstake",
      "outputs": [],
      "stateMutability": "nonpayable",
      "type": "function"
    },
    {
      "inputs": [
        {
          "internalType": "address",
          "name": "",
          "type": "address"
        }
      ],
      "name": "users",
      "outputs": [
        {
          "internalType": "uint256",
          "name": "stakedAmount",
          "type": "uint256"
        },
        {
          "internalType": "uint256",
          "name": "firstStakeTime",
          "type": "uint256"
        },
        {
          "internalType": "uint256",
          "name": "firstStakeDay",
          "type": "uint256"
        },
        {
          "internalType": "uint256",
          "name": "lastStakeTime",
          "type": "uint256"
        },
        {
          "internalType": "uint256",
          "name": "receivedRewardAmount",
          "type": "uint256"
        },
        {
          "internalType": "uint256",
          "name": "numOfReceivedRewards",
          "type": "uint256"
        },
        {
          "internalType": "uint256",
          "name": "savedReward",
          "type": "uint256"
        }
      ],
      "stateMutability": "view",
      "type": "function"
    }
  ],
  "bytecode": "0x608060405260036005553480156200001657600080fd5b50604051620022163803806200221683398181016040528101906200003c91906200025c565b6200005c620000506200012660201b60201c565b6200012e60201b60201c565b42600381905550601e600554620000749190620002c7565b60035462000083919062000312565b60048190555080600160006101000a81548173ffffffffffffffffffffffffffffffffffffffff021916908373ffffffffffffffffffffffffffffffffffffffff16021790555073337610d27c682e347c9cd60bd4b3b107c9d34ddd600260006101000a81548173ffffffffffffffffffffffffffffffffffffffff021916908373ffffffffffffffffffffffffffffffffffffffff160217905550506200034d565b600033905090565b60008060009054906101000a900473ffffffffffffffffffffffffffffffffffffffff169050816000806101000a81548173ffffffffffffffffffffffffffffffffffffffff021916908373ffffffffffffffffffffffffffffffffffffffff1602179055508173ffffffffffffffffffffffffffffffffffffffff168173ffffffffffffffffffffffffffffffffffffffff167f8be0079c531659141344cd1fd0a4f28419497f9722a3daafe3b4186f6b6457e060405160405180910390a35050565b600080fd5b600073ffffffffffffffffffffffffffffffffffffffff82169050919050565b60006200022482620001f7565b9050919050565b620002368162000217565b81146200024257600080fd5b50565b60008151905062000256816200022b565b92915050565b600060208284031215620002755762000274620001f2565b5b6000620002858482850162000245565b91505092915050565b6000819050919050565b7f4e487b7100000000000000000000000000000000000000000000000000000000600052601160045260246000fd5b6000620002d4826200028e565b9150620002e1836200028e565b9250828202620002f1816200028e565b915082820484148315176200030b576200030a62000298565b5b5092915050565b60006200031f826200028e565b91506200032c836200028e565b925082820190508082111562000347576200034662000298565b5b92915050565b611eb9806200035d6000396000f3fe6080604052600436106100c25760003560e01c806371aec5151161007f5780638da5cb5b116100595780638da5cb5b146101fd578063a87430ba14610228578063d72605f51461026b578063f2fde38b14610296576100c2565b806371aec5151461017e57806377999ffb146101a9578063817b1cd2146101d2576100c2565b8063066fd899146100c75780632def6620146101045780633a4b66f11461011b5780633d18b912146101255780635610e5421461013c578063715018a614610167575b600080fd5b3480156100d357600080fd5b506100ee60048036038101906100e991906116e3565b6102bf565b6040516100fb9190611729565b60405180910390f35b34801561011057600080fd5b506101196105a1565b005b610123610a2d565b005b34801561013157600080fd5b5061013a610fb0565b005b34801561014857600080fd5b50610151611289565b60405161015e9190611729565b60405180910390f35b34801561017357600080fd5b5061017c61128f565b005b34801561018a57600080fd5b506101936112a3565b6040516101a09190611729565b60405180910390f35b3480156101b557600080fd5b506101d060048036038101906101cb9190611770565b6112a9565b005b3480156101de57600080fd5b506101e76112dd565b6040516101f49190611729565b60405180910390f35b34801561020957600080fd5b506102126112e3565b60405161021f91906117ac565b60405180910390f35b34801561023457600080fd5b5061024f600480360381019061024a91906116e3565b61130c565b60405161026297969594939291906117c7565b60405180910390f35b34801561027757600080fd5b5061028061134e565b60405161028d9190611729565b60405180910390f35b3480156102a257600080fd5b506102bd60048036038101906102b891906116e3565b611381565b005b600080600080600860008673ffffffffffffffffffffffffffffffffffffffff1673ffffffffffffffffffffffffffffffffffffffff168152602001908152602001600020600201549050600061031586611404565b90506000600860008873ffffffffffffffffffffffffffffffffffffffff1673ffffffffffffffffffffffffffffffffffffffff16815260200190815260200160002060050154836103679190611865565b90505b81836103769190611865565b811015610544575b80600860008973ffffffffffffffffffffffffffffffffffffffff1673ffffffffffffffffffffffffffffffffffffffff16815260200190815260200160002060070186815481106103d3576103d2611899565b5b90600052602060002001541180610447575082600860008973ffffffffffffffffffffffffffffffffffffffff1673ffffffffffffffffffffffffffffffffffffffff168152602001908152602001600020600701868154811061043a57610439611899565b5b9060005260206000200154105b1561045f578480610457906118c8565b95505061037e565b60008190505b600060076000838152602001908152602001600020540361049357808061048b90611910565b915050610465565b600060076000838152602001908152602001600020549050806103e8600860008c73ffffffffffffffffffffffffffffffffffffffff1673ffffffffffffffffffffffffffffffffffffffff168152602001908152602001600020600801898154811061050357610502611899565b5b90600052602060002001546105189190611939565b61052291906119aa565b8661052d9190611865565b95505050808061053c906118c8565b91505061036a565b50600860008773ffffffffffffffffffffffffffffffffffffffff1673ffffffffffffffffffffffffffffffffffffffff16815260200190815260200160002060060154836105939190611865565b925082945050505050919050565b60006105ab611536565b90506000600860008373ffffffffffffffffffffffffffffffffffffffff1673ffffffffffffffffffffffffffffffffffffffff16815260200190815260200160002060000154905060008103610637576040517f08c379a000000000000000000000000000000000000000000000000000000000815260040161062e90611a38565b60405180910390fd5b6000600860008473ffffffffffffffffffffffffffffffffffffffff1673ffffffffffffffffffffffffffffffffffffffff16815260200190815260200160002060060154610685846102bf565b61068f9190611865565b9050600061069b61134e565b9050601f811115801561071357506005546001826106b99190611a58565b6106c39190611939565b600860008673ffffffffffffffffffffffffffffffffffffffff1673ffffffffffffffffffffffffffffffffffffffff168152602001908152602001600020600101546107109190611865565b42105b15610829576006546103e8600860008773ffffffffffffffffffffffffffffffffffffffff1673ffffffffffffffffffffffffffffffffffffffff1681526020019081526020016000206008016001600860008973ffffffffffffffffffffffffffffffffffffffff1673ffffffffffffffffffffffffffffffffffffffff168152602001908152602001600020600801805490506107b29190611a58565b815481106107c3576107c2611899565b5b90600052602060002001546107d89190611939565b6107e291906119aa565b600860008673ffffffffffffffffffffffffffffffffffffffff1673ffffffffffffffffffffffffffffffffffffffff168152602001908152602001600020600601819055505b6000600860008673ffffffffffffffffffffffffffffffffffffffff1673ffffffffffffffffffffffffffffffffffffffff168152602001908152602001600020600401819055506000600860008673ffffffffffffffffffffffffffffffffffffffff1673ffffffffffffffffffffffffffffffffffffffff168152602001908152602001600020600001819055506000600860008673ffffffffffffffffffffffffffffffffffffffff1673ffffffffffffffffffffffffffffffffffffffff1681526020019081526020016000206001018190555082600660008282546109139190611a58565b925050819055506006546007600083815260200190815260200160002081905550600160009054906101000a900473ffffffffffffffffffffffffffffffffffffffff1673ffffffffffffffffffffffffffffffffffffffff1663a9059cbb85846040518363ffffffff1660e01b8152600401610991929190611a8c565b6020604051808303816000875af11580156109b0573d6000803e3d6000fd5b505050506040513d601f19601f820116820180604052508101906109d49190611aed565b5080838573ffffffffffffffffffffffffffffffffffffffff167fdcfd2b4017d03f7e541021db793b2f9b31e4acdee005f789e52853c390e3e9624286604051610a1f929190611b1a565b60405180910390a450505050565b6000610a37611536565b905060003490506003544211610a82576040517f08c379a0000000000000000000000000000000000000000000000000000000008152600401610a7990611b8f565b60405180910390fd5b6004544210610ac6576040517f08c379a0000000000000000000000000000000000000000000000000000000008152600401610abd90611bfb565b60405180910390fd5b60b4600860008473ffffffffffffffffffffffffffffffffffffffff1673ffffffffffffffffffffffffffffffffffffffff1681526020019081526020016000206003015442610b169190611a58565b11610b56576040517f08c379a0000000000000000000000000000000000000000000000000000000008152600401610b4d90611c8d565b60405180910390fd5b6000610b6061134e565b90506000600860008573ffffffffffffffffffffffffffffffffffffffff1673ffffffffffffffffffffffffffffffffffffffff1681526020019081526020016000206000015403610c3b5742600860008573ffffffffffffffffffffffffffffffffffffffff1673ffffffffffffffffffffffffffffffffffffffff1681526020019081526020016000206001018190555080600860008573ffffffffffffffffffffffffffffffffffffffff1673ffffffffffffffffffffffffffffffffffffffff168152602001908152602001600020600201819055505b81600860008573ffffffffffffffffffffffffffffffffffffffff1673ffffffffffffffffffffffffffffffffffffffff1681526020019081526020016000206000016000828254610c8d9190611865565b925050819055506000600860008573ffffffffffffffffffffffffffffffffffffffff1673ffffffffffffffffffffffffffffffffffffffff168152602001908152602001600020600701805490509050600081118015610d57575081600860008673ffffffffffffffffffffffffffffffffffffffff1673ffffffffffffffffffffffffffffffffffffffff168152602001908152602001600020600701600183610d399190611a58565b81548110610d4a57610d49611899565b5b9060005260206000200154145b15610e1257600860008573ffffffffffffffffffffffffffffffffffffffff1673ffffffffffffffffffffffffffffffffffffffff16815260200190815260200160002060000154600860008673ffffffffffffffffffffffffffffffffffffffff1673ffffffffffffffffffffffffffffffffffffffff168152602001908152602001600020600801600183610dee9190611a58565b81548110610dff57610dfe611899565b5b9060005260206000200181905550610f27565b600860008573ffffffffffffffffffffffffffffffffffffffff1673ffffffffffffffffffffffffffffffffffffffff168152602001908152602001600020600701829080600181540180825580915050600190039060005260206000200160009091909190915055600860008573ffffffffffffffffffffffffffffffffffffffff1673ffffffffffffffffffffffffffffffffffffffff168152602001908152602001600020600801600860008673ffffffffffffffffffffffffffffffffffffffff1673ffffffffffffffffffffffffffffffffffffffff1681526020019081526020016000206000015490806001815401808255809150506001900390600052602060002001600090919091909150555b8260066000828254610f399190611865565b92505081905550600654600760008481526020019081526020016000208190555081838573ffffffffffffffffffffffffffffffffffffffff167fb4caaf29adda3eefee3ad552a8e85058589bf834c7466cae4ee58787f70589ed42604051610fa29190611729565b60405180910390a450505050565b6000610fba611536565b90506000600860008373ffffffffffffffffffffffffffffffffffffffff1673ffffffffffffffffffffffffffffffffffffffff1681526020019081526020016000206003015411611041576040517f08c379a000000000000000000000000000000000000000000000000000000000815260040161103890611cf9565b60405180910390fd5b600061104c826102bf565b905060008103611091576040517f08c379a000000000000000000000000000000000000000000000000000000000815260040161108890611d65565b60405180910390fd5b600061109c83611404565b90506000600860008573ffffffffffffffffffffffffffffffffffffffff1673ffffffffffffffffffffffffffffffffffffffff1681526020019081526020016000206006015414611131576000600860008573ffffffffffffffffffffffffffffffffffffffff1673ffffffffffffffffffffffffffffffffffffffff168152602001908152602001600020600601819055505b81600860008573ffffffffffffffffffffffffffffffffffffffff1673ffffffffffffffffffffffffffffffffffffffff16815260200190815260200160002060040160008282546111839190611865565b9250508190555080600860008573ffffffffffffffffffffffffffffffffffffffff1673ffffffffffffffffffffffffffffffffffffffff16815260200190815260200160002060050160008282546111dc9190611865565b92505081905550600160009054906101000a900473ffffffffffffffffffffffffffffffffffffffff1673ffffffffffffffffffffffffffffffffffffffff1663a9059cbb84846040518363ffffffff1660e01b8152600401611240929190611a8c565b6020604051808303816000875af115801561125f573d6000803e3d6000fd5b505050506040513d601f19601f820116820180604052508101906112839190611aed565b50505050565b60045481565b61129761153e565b6112a160006115bc565b565b60035481565b6112b161153e565b80600381905550601e6005546112c79190611939565b6003546112d49190611865565b60048190555050565b60065481565b60008060009054906101000a900473ffffffffffffffffffffffffffffffffffffffff16905090565b60086020528060005260406000206000915090508060000154908060010154908060020154908060030154908060040154908060050154908060060154905087565b6000806001600554600354426113649190611a58565b61136e91906119aa565b6113789190611865565b90508091505090565b61138961153e565b600073ffffffffffffffffffffffffffffffffffffffff168173ffffffffffffffffffffffffffffffffffffffff16036113f8576040517f08c379a00000000000000000000000000000000000000000000000000000000081526004016113ef90611df7565b60405180910390fd5b611401816115bc565b50565b6000806005546004546114179190611865565b42116114235742611434565b6005546004546114339190611865565b5b9050600080600860008673ffffffffffffffffffffffffffffffffffffffff1673ffffffffffffffffffffffffffffffffffffffff168152602001908152602001600020600101541461152c57600860008573ffffffffffffffffffffffffffffffffffffffff1673ffffffffffffffffffffffffffffffffffffffff16815260200190815260200160002060050154600554600860008773ffffffffffffffffffffffffffffffffffffffff1673ffffffffffffffffffffffffffffffffffffffff16815260200190815260200160002060010154846115159190611a58565b61151f91906119aa565b6115299190611a58565b90505b8092505050919050565b600033905090565b611546611536565b73ffffffffffffffffffffffffffffffffffffffff166115646112e3565b73ffffffffffffffffffffffffffffffffffffffff16146115ba576040517f08c379a00000000000000000000000000000000000000000000000000000000081526004016115b190611e63565b60405180910390fd5b565b60008060009054906101000a900473ffffffffffffffffffffffffffffffffffffffff169050816000806101000a81548173ffffffffffffffffffffffffffffffffffffffff021916908373ffffffffffffffffffffffffffffffffffffffff1602179055508173ffffffffffffffffffffffffffffffffffffffff168173ffffffffffffffffffffffffffffffffffffffff167f8be0079c531659141344cd1fd0a4f28419497f9722a3daafe3b4186f6b6457e060405160405180910390a35050565b600080fd5b600073ffffffffffffffffffffffffffffffffffffffff82169050919050565b60006116b082611685565b9050919050565b6116c0816116a5565b81146116cb57600080fd5b50565b6000813590506116dd816116b7565b92915050565b6000602082840312156116f9576116f8611680565b5b6000611707848285016116ce565b91505092915050565b6000819050919050565b61172381611710565b82525050565b600060208201905061173e600083018461171a565b92915050565b61174d81611710565b811461175857600080fd5b50565b60008135905061176a81611744565b92915050565b60006020828403121561178657611785611680565b5b60006117948482850161175b565b91505092915050565b6117a6816116a5565b82525050565b60006020820190506117c1600083018461179d565b92915050565b600060e0820190506117dc600083018a61171a565b6117e9602083018961171a565b6117f6604083018861171a565b611803606083018761171a565b611810608083018661171a565b61181d60a083018561171a565b61182a60c083018461171a565b98975050505050505050565b7f4e487b7100000000000000000000000000000000000000000000000000000000600052601160045260246000fd5b600061187082611710565b915061187b83611710565b925082820190508082111561189357611892611836565b5b92915050565b7f4e487b7100000000000000000000000000000000000000000000000000000000600052603260045260246000fd5b60006118d382611710565b91507fffffffffffffffffffffffffffffffffffffffffffffffffffffffffffffffff820361190557611904611836565b5b600182019050919050565b600061191b82611710565b91506000820361192e5761192d611836565b5b600182039050919050565b600061194482611710565b915061194f83611710565b925082820261195d81611710565b9150828204841483151761197457611973611836565b5b5092915050565b7f4e487b7100000000000000000000000000000000000000000000000000000000600052601260045260246000fd5b60006119b582611710565b91506119c083611710565b9250826119d0576119cf61197b565b5b828204905092915050565b600082825260208201905092915050565b7f596f7520646f206e6f742068617665207374616b656420746f6b656e73000000600082015250565b6000611a22601d836119db565b9150611a2d826119ec565b602082019050919050565b60006020820190508181036000830152611a5181611a15565b9050919050565b6000611a6382611710565b9150611a6e83611710565b9250828203905081811115611a8657611a85611836565b5b92915050565b6000604082019050611aa1600083018561179d565b611aae602083018461171a565b9392505050565b60008115159050919050565b611aca81611ab5565b8114611ad557600080fd5b50565b600081519050611ae781611ac1565b92915050565b600060208284031215611b0357611b02611680565b5b6000611b1184828501611ad8565b91505092915050565b6000604082019050611b2f600083018561171a565b611b3c602083018461171a565b9392505050565b7f5374616b696e6720706572696f64206973206e6f742073746172746564000000600082015250565b6000611b79601d836119db565b9150611b8482611b43565b602082019050919050565b60006020820190508181036000830152611ba881611b6c565b9050919050565b7f5374616b696e6720706572696f6420697320656e646564000000000000000000600082015250565b6000611be56017836119db565b9150611bf082611baf565b602082019050919050565b60006020820190508181036000830152611c1481611bd8565b9050919050565b7f54686520627265616b206265747765656e20746865207374616b65732073686f60008201527f756c642062652033206d696e7574657300000000000000000000000000000000602082015250565b6000611c776030836119db565b9150611c8282611c1b565b604082019050919050565b60006020820190508181036000830152611ca681611c6a565b9050919050565b7f596f75277665206e65766572206861642061207374616b650000000000000000600082015250565b6000611ce36018836119db565b9150611cee82611cad565b602082019050919050565b60006020820190508181036000830152611d1281611cd6565b9050919050565b7f596f7520646f6e2774206861766520617661696c61626c652072657761726400600082015250565b6000611d4f601f836119db565b9150611d5a82611d19565b602082019050919050565b60006020820190508181036000830152611d7e81611d42565b9050919050565b7f4f776e61626c653a206e6577206f776e657220697320746865207a65726f206160008201527f6464726573730000000000000000000000000000000000000000000000000000602082015250565b6000611de16026836119db565b9150611dec82611d85565b604082019050919050565b60006020820190508181036000830152611e1081611dd4565b9050919050565b7f4f776e61626c653a2063616c6c6572206973206e6f7420746865206f776e6572600082015250565b6000611e4d6020836119db565b9150611e5882611e17565b602082019050919050565b60006020820190508181036000830152611e7c81611e40565b905091905056fea264697066735822122045afd6122d8b4143c38fe8872b7665a017e33fe64308792de631c877597b787964736f6c63430008110033",
  "linkReferences": {},
  "deployedLinkReferences": {}
}